:100000000C94D0000C94EF000C94EF000C94EF00D3
:100010000C94EF000C94EF000C94EF000C94EF00A4
:100020000C94EF000C94EF000C94422B0C94EF0016
:100030000C94EF000C94762B0C94EF000C94A42AF3
:100040000C94EF000C94EF000C94EF000C94EF0074
:100050000C94EF000C94EF000C94EF000C94EF0064
:100060000C94EF000C9490090C94EF000C94EF00AA
:100070000C94EF000C949E0F0C94EF000C94EF0086
:100080000C949E080C94B4080C94EF000C941B087C
:100090000C94EF000C94EF000C94EF000C94EF0024
:1000A0000C94EF000C94EF000C94EF070C940508EF
:1000B0000C94EF000C9462070C94EF000C94EF008A
:1000C0000C94EF000C94EF000C94EF000C94EF00F4
:1000D0000C94EF000C94EF000C94EF000C94EF00E4
:1000E0000C94EF00201A281A301A341A381A401AC1
:1000F0005F1A631A671A6B1A6F1A751A7B1A811ABC
:10010000871A8D1A931A961AA62D712DB22C602D6E
:10011000452DA92C222D912DE12C822D0D2E0D2E59
:100120000D2E0D2E0D2E0D2EE72DEB2D0D2E0D2E41
:100130000D2E0D2E0D2E0D2E0D2E0D2E0D2E0D2EE7
:100140000D2E0D2EE12CB22C062E012E0D2E0D2E75
:100150000D2E0D2E0D2E0D2E0D2E0D2E0D2E0D2EC7
:100160000D2E0D2E452D222D0D2E0D2EA62DA92C3A
:10017000EE2D084AD73B3BCE016E84BCBFFDC12F9C
:100180003D6C74319ABD56833DDA3D00C77F11BE88
:10019000D9E4BB4C3E916BAAAABE000000803F0090
:1001A00011241FBECFEFD1E2DEBFCDBF00E00CBFF8
:1001B0001DE0A0E0B2E0E0E6F2E702C005900D929B
:1001C000AC3EB107D9F71CE1ACEEBDE001C01D9219
:1001D000A831B107E1F70E94B6030C942F390C94B3
:1001E000000087E892E0089585EC93E00895089573
:1001F000660F771F615D7C4FDB01ED91FC911995D6
:10020000089585E093E0089560E00E9458090895FC
:10021000DF93CF930F92CDB7DEB760E099830E9452
:1002200058099981892F60E00E9458090F90CF9159
:10023000DF910895EF92FF920F931F93CF93DF9377
:10024000EB017A01CA0102970E9408018091CD0258
:100250009091CE020E94080100E010E005C0899153
:100260000E9404010F5F1F4F0E151F05C0F3DF91A1
:10027000CF911F910F91FF90EF90089585E690E048
:100280005FB7F89441E020911117309112172115B2
:10029000310509F040E05FBF019729F481E08093C8
:1002A000101780E00895442359F79FB7F894E09120
:1002B0001418F0E0ED5EF84E808120911117309116
:1002C00012172150304030931217209311179FBFFF
:1002D000909114189F5F9093141808951F930E9493
:1002E0003E01182F80911017882369F40E943E0167
:1002F00090911017992339F4212F30E0582F40E0C6
:10030000242B352B02C020E030E0C9011F91089555
:10031000EF92FF920F931F93CF93DF937B0189019D
:100320000E946E01209110172223C9F4EC0122963D
:10033000C330D105E8F00E946E01F80191838083FB
:1003400080911017882359F400E010E00E943E01CC
:10035000F70181937F0180911017882319F0109283
:10036000101706C00F5F1F4F0C171D0778F302C050
:10037000C0E0D0E0CE01DF91CF911F910F91FF90AF
:10038000EF900895CF92DF92EF92FF920F931F9319
:10039000CF93DF938091931A9091941A2091F00D4E
:1003A0003091F10D8217930789F08536910514F08D
:1003B00084E690E02FEF8C39920714F48CE99FEFDC
:1003C0009093F10D8093F00D0E94F4068091951AA0
:1003D0009091961A2091EE0D3091EF0D82179307B0
:1003E00089F08536910514F084E690E03FEF8C3972
:1003F000930714F48CE99FEF9093EF0D8093EE0D2B
:100400000E942B070E943D068091CF16882309F495
:100410007BC01092CF1607E91AE15AE2E52EF12CC3
:10042000E00EF11E40EDC42E46E1D42EC0E0D0E037
:10043000F801819191918F0161E0009709F460E0EA
:100440008C2F0E94AE04FE01EE0FFF1FEE0FFF1F68
:10045000E85CF94E80819181F701819391937F014E
:10046000F601819191916F01F801918F808F219612
:10047000C830D105E9F6809158169091591690939D
:10048000DA1A8093D91A8091781690917916909300
:10049000D21A8093D11A80915C1690915D16909338
:1004A000DC1A8093DB1A80917A1690917B169093D8
:1004B000D41A8093D31A809160169091611690930C
:1004C000DE1A8093DD1A80917C1690917D169093B0
:1004D000D61A8093D51A80916416909165169093E0
:1004E000E01A8093DF1A80917E1690917F16909388
:1004F000D81A8093D71A8091EC0D9091ED0D816000
:100500009093ED0D8093EC0D809103039091040383
:10051000009719F00E94321523C00E947315809134
:100520001A1890911B189093E21A8093E11A809107
:100530001C1890911D189093E41A8093E31A8091EF
:100540001E1890911F189093E61A8093E51A8091D7
:10055000EC0D9091ED0D82609093ED0D8093EC0D7C
:1005600081E090E02091030330910403821B930B00
:1005700090930403809303038091A71A9091A81A83
:1005800097FD07C08F3F910529F024F08FEF90E091
:1005900001C080E00E9472048091A91A9091AA1A69
:1005A00097FD07C08F3F910529F024F08FEF90E071
:1005B00001C080E00E9486048091AB1A9091AC1A31
:1005C00097FD07C08F3F910529F024F08FEF90E051
:1005D00001C080E00E949A040E94452A8093E71A95
:1005E0001092E81A8091AD1A9091AE1A009711F00E
:1005F000459801C0459A8091AF1A9091B01A009722
:1006000011F0449801C0449A80911618882341F053
:100610000E94892C8093E91A1092EA1A10921618F7
:10062000DF91CF911F910F91FF90EF90DF90CF90CE
:1006300008950E942F0580E00E9472048FEF0E94AF
:1006400086048FEF0E949A04FFCFF89414BC15BC67
:1006500010926E0010922001109221018EEF9FE007
:100660000E949F3890930D1780930C179C0121587E
:100670003C402330310518F410923C180DC02CE09A
:100680008038920711F481E005C02CE0843892078D
:1006900018F082E080933C180E94CA080E947B0FE9
:1006A0000E9448050E9435040E9427090E947E127C
:1006B0000E94272B789408950F931F93CF93DF9375
:1006C0008C010E942F0580E090E064E070E00E94C1
:1006D000A538C0E0D0E0CE018E7FD8011496ED9110
:1006E000FC911597E80FF91F60817181CE018E5F33
:1006F0009F4F0E94A5382296B8E0C030DB0759F71B
:100700000E941605DF91CF911F910F9108950C94CF
:10071000000008951F93CF93DF930E94452A182F5E
:10072000C82FD0E02196D093CE02C093CD028DEC9D
:1007300092E00E94A71AD093501AC0934F1A2FEF3D
:1007400030E03093A81A2093A71A3093AA1A209366
:10075000A91A3093AC1A2093AB1A105D10930702BC
:100760000E941605DF91CF911F9108950F931F935B
:10077000CF93DF930E9425030E948A030E943014C6
:1007800080E090E00E949F3884309105E1F4C0E061
:10079000D0E0CE018E5F9F4F0E949F389E012E7F3A
:1007A000E091D102F091D202E20FF31F9183808396
:1007B000229688E0C030D80761F78DEC92E06FEFA9
:1007C0007FEF0E940F1F04B600FE03C084B78E7F28
:1007D00084BF04B601FE07C084B78D7F84BF8DEC53
:1007E00092E00E946218C1E0D0E00EEF1FEF8DECA6
:1007F00092E00E94A2190E94C2018DEC92E064E690
:1008000070E00E94F81E8091DB0281FF02C080FD33
:10081000EECF4091EC0D5091ED0D40FD05C041FF34
:10082000E6CF21E030E002C020E030E0CE01022E31
:1008300002C0880F991F0A94E2F78095909584234F
:1008400095239093ED0D8093EC0D8091CD029091C6
:10085000CE029093521A8093511AB801621B730B07
:100860008DEC92E00E940F1FC2CFA0E8B0E01C9276
:10087000E1E8F0E010828C91896A8C938081896034
:1008800080838091DA0390E09093890080938800C0
:100890008091DB0390E090938B0080938A0080919D
:1008A000DC0390E090938D0080938C00089581E0AC
:1008B00090910E17891B80930E17882361F0809109
:1008C00080008860809380008FEF90E090938D008F
:1008D00080938C00089580918000877F80938000B2
:1008E0002F980895882339F4809180008F77809322
:1008F00080002D98089590918000906890938000DA
:1009000090E090938900809388000895882339F4BB
:10091000809180008F7D809380002E980895909123
:10092000800090629093800090E090938B00809381
:100930008A000895882339F480918000877F80930E
:1009400080002F9808959091800098609093800087
:1009500090E090938D0080938C000895833079F11E
:10096000843028F48130B9F08230F8F40AC0853040
:10097000B9F1853058F18630E9F1873009F055C07A
:1009800043C0662321F080910B018E7F42C080918D
:100990000B0181603EC0662321F080910B018D7FA9
:1009A00038C080910B01826034C0662321F08091B1
:1009B0000B018B7F2EC080910B0184602AC06623BF
:1009C00011F0A39801C0A39A84B30895662321F07F
:1009D00080910B018F7E1DC080910B01806119C039
:1009E000662321F080910B018F7D13C080910B0154
:1009F00080620FC0662321F080910B018F7B09C0BC
:100A000080910B01806405C0662341F080910B0149
:100A10008F7780930B0180910B01089580910B01DA
:100A2000806880930B0180910B010895EBE0F1E069
:100A30008081816080838081826080838081846006
:100A40008083A39A8081806180838081806280839B
:100A50008081806480838081806880830895EBE05A
:100A6000F1E080818E7F808380818D7F8083808193
:100A70008B7F8083A39880818F7E808380818F7D10
:100A8000808380818F7B808380818F7780830895AE
:100A90000F931F93CF93DF93E0E9F0E0108241E9D9
:100AA00050E0DA011C9221E730E0E9011882A0EA67
:100AB000B0E01C9281EA90E0EC01188202E710E0BD
:100AC000E80118826081636860836081636060838D
:100AD000EA0168816B6068834091F4165091F516C5
:100AE000509399004093980010929B0010929A00A6
:100AF000E90148814160488320812F7520832EB110
:100B0000277E2EB92C9123682C93FC0120812B6029
:100B100020838091F6169091F7169093A900809308
:100B2000A8001092AB001092AA00E80188818160B1
:100B300088838C918F758C93E2E0F1E08081877ED1
:100B40008083DF91CF911F910F9108958091D503FC
:100B5000882391F08091EC169091ED1696958795EB
:100B6000969587959093F1168093F0161092D50381
:100B70001092ED161092EC168091D603882391F016
:100B80008091EE169091EF1696958795969587959C
:100B90009093F3168093F2161092D6031092EF16EC
:100BA0001092EE168091F8169091F9169093051711
:100BB000809304178091FA169091FB169093071773
:100BC0008093061780913D18882331F086E097E1E5
:100BD00064E077E10E94C809209106173091071759
:100BE0003093EB162093EA16809104179091051725
:100BF0009093E9168093E8163093F7162093F61633
:100C00009093F5168093F416181619062CF4909309
:100C100099008093980012C0009741F090958195BB
:100C20009F4F90939B0080939A0008C01092990068
:100C30001092980010929B0010929A008091F616E4
:100C40009091F716181619062CF49093A90080932A
:100C5000A8000895009741F0909581959F4F90933B
:100C6000AB008093AA0008951092A9001092A800EA
:100C70001092AB001092AA0008958091FA169091FC
:100C8000FB1690930717809306178091F8169091A2
:100C9000F916909305178093041780913D188823C7
:100CA00031F086E097E164E077E10E94C809809125
:100CB0000617909107179093EB168093EA16809190
:100CC0000417909105179093E9168093E816809188
:100CD000D503882309F441C08091EC169091ED165C
:100CE00096958795969587959093F1168093F01633
:100CF0001092D5031092ED161092EC168091E40339
:100D0000813029F486E097E10E94A70E04C086E0B6
:100D100097E10E949D0B8091061790910717909381
:100D2000F7168093F616181619062CF49093A9005E
:100D30008093A80012C0009741F0909581959F4F35
:100D40009093AB008093AA0008C01092A900109263
:100D5000A8001092AB001092AA008091D6038823BD
:100D600009F441C08091EE169091EF169695879503
:100D7000969587959093F3168093F2161092D6036A
:100D80001092EF161092EE168091E403813029F450
:100D900084E097E10E94D30D04C084E097E10E94B3
:100DA000B80C80910417909105179093F5168093D5
:100DB000F416181619062CF4909399008093980055
:100DC0000895009741F0909581959F4F90939B00D7
:100DD00080939A00089510929900109298001092B2
:100DE0009B0010929A000895282F332727FD3095F5
:100DF00037FF03C0309521953F4F3093091720935B
:100E00000817220F331F220F331F87FF03C03095AF
:100E100021953F4F3093FB162093FA168091FA16D6
:100E20009091FB1622E08130920734F080E092E04E
:100E30009093FB168093FA168091FA169091FB1608
:100E40002EEF8030920734F480E09EEF9093FB16F3
:100E50008093FA160895282F332727FD309537FF02
:100E600003C0309521953F4F30930B1720930A17FD
:100E7000220F331F220F331F87FF03C030952195A8
:100E80003F4F3093F9162093F8168091F816909101
:100E9000F91622E08130920734F080E092E09093DE
:100EA000F9168093F8168091F8169091F9162EEFA6
:100EB0008030920734F480E09EEF9093F91680938F
:100EC000F81608951F920F920FB60F9211248F9368
:100ED0009F9380913F18882361F01092F71610922B
:100EE000F6161092A9001092A8001092AB00109272
:100EF000AA001092E1161092E0168091F6169091D9
:100F0000F716009739F58091EA169091EB1697FD48
:100F100005C081E0809337168EE004C081E08093A5
:100F200037168FE08093341681E08093D803809148
:100F3000A0008F758093A00080910201877E80932E
:100F4000020180917200897F8093720089B386606C
:100F500089BB3EC018161906ECF4109237168FE0C4
:100F6000809334168091A0008F7D8093A0008091A3
:100F700072008B7F80937200809102018F7E80933C
:100F800002018091A00080688093A000809172008F
:100F900082601CC0109237168EE0809334168091C8
:100FA000A0008F778093A000809172008D7F809346
:100FB000720080910201877F809302018091A000DE
:100FC00080628093A00080917200846080937200A0
:100FD0009F918F910F900FBE0F901F9018951F92A9
:100FE0000F920FB60F9211248F939F9381E08093FD
:100FF00037169EE0909334168093D8039F918F917B
:101000000F900FBE0F901F9018951F920F920FB662
:101010000F9211248F939F9381E0809337169FE066
:10102000909334168093D8039F918F910F900FBEA9
:101030000F901F9018951F920F920FB60F921124C8
:101040008F939F9380913F18882361F01092F5163B
:101050001092F416109299001092980010929B0032
:1010600010929A001092E3161092E2168091F416F4
:101070009091F516009729F58091E8169091E91660
:1010800097FD05C081E0809336168CE004C081E0B6
:10109000809336168DE08093351681E08093D703D8
:1010A000809190008F75809390008EB1877E8EB96D
:1010B00080917100897F8093710088B3866088BBBE
:1010C00036C018161906CCF4109236168DE08093AF
:1010D0003516809190008F7D8093900080917100F3
:1010E0008B7F8093710074988091900080688093CA
:1010F000900080917100826018C0109236168CE0CA
:1011000080933516809190008F7780939000809126
:1011100071008D7F80937100739880919000806240
:1011200080939000809171008460809371009F9102
:101130008F910F900FBE0F901F9018951F920F92D6
:101140000FB60F9211248F939F9381E080933616F0
:101150009CE0909335168093D7039F918F910F90C9
:101160000FBE0F901F9018951F920F920FB60F92FF
:1011700011248F939F9381E0809336169DE0909386
:1011800035168093D7039F918F910F900FBE0F90CC
:101190001F90189585B7806185BF8FEF81B912B810
:1011A00097EF94B990EE95B990EF97B990EB98B905
:1011B0009CEF9AB993E09BB98DB91EB810BA83BB66
:1011C00080913C18882309F414BA80913C1881302E
:1011D00009F414BA80913C18823011F488E084BB81
:1011E0008FEF80930101109202018FE08093040140
:1011F00080913C18882321F480910501109205010B
:1012000080913C18813019F48FE080930501809122
:101210003C18823019F48FE0809305011092070189
:101220008FEF80930A0180913C18882311F410926B
:101230000B0180913C18813011F410920B018091C8
:101240003C18823019F487EF80930B0108951092B7
:10125000C50080E18093C400E0ECF0E08081826012
:101260008083E1ECF0E0808188698083E2ECF0E04B
:1012700080818660808308951092CD0080E1809304
:10128000CC00E8ECF0E0808182608083E9ECF0E063
:10129000808188618083EAECF0E0808186608083D1
:1012A00008951092C0001092C1001092C2000895DB
:1012B0009091C00095FFFCCF8093C600662321F07B
:1012C0008091C00086FFFCCF08959091C80095FFE3
:1012D000FCCF8093CE00662321F08091C80086FF6A
:1012E000FCCF08958091C0008095881F8827881FB3
:1012F0000895CF93DF93C0E0D0E009C02196C739AD
:10130000D10529F481E08093101780E006C00E9487
:101310007209882399F78091C600DF91CF910895D3
:101320001F920F920FB60F920BB60F9211242F93AC
:101330008F939F93EF93FF938091111790911217C2
:101340000196909312178093111721E08130920734
:1013500060F4809113189091C600E82FF0E0ED5EE4
:10136000F84E90838F5F80931318FF91EF919F91B8
:101370008F912F910F900BBE0F900FBE0F901F906B
:10138000189580919400909195000E94DB36089505
:101390002F923F924F925F926F927F928F929F9285
:1013A000AF92BF92CF92DF92EF92FF920F931F9373
:1013B000DF93CF93CDB7DEB728970FB6F894DEBF93
:1013C0000FBECDBF3C014B01FC010190F081E02D2F
:1013D000FA83E983FB010190F081E02DFC83EB832C
:1013E000E0EDF6E1808191818530910514F4118260
:1013F0001082329626E1E03EF207A1F74090D01627
:101400005090D1165094419451085394C090D216E4
:10141000D090D316D594C794E090D616F090D716F6
:10142000F594E7944091D8165091D91658874F8378
:101430000091DA161091DB1615950795A090DE162F
:10144000B090DF16B594A7940E94D6366F81788548
:101450006E517040640D751D6E0D7F1D600F711F04
:101460006C197D096A197B0978876F832CE330E05A
:10147000B9010E940136EF81F885E80FF91FF8875E
:10148000EF83E090D216F090D316F594E794009194
:10149000D4161091D5161595079515950795C090FA
:1014A000D616D090D716D594C794A090DA16B090DF
:1014B000DB16B594A7944090DC165090DD16559439
:1014C0004794559447942090DE163090DF1635945B
:1014D00027942D833E830E94D6360E0D1F1D0E517C
:1014E00010400C0D1D1D0A191B09041915090219BC
:1014F00013092D813E81B9010E940136080F191F81
:101500002F8038849101442737FD4095542FC8011E
:10151000AA2797FDA095BA2F49805A8057FC20C072
:101520006201EE24D7FCE094FE2C19012A01281A4E
:10153000390A4A0A5B0AC201B101A70196010E9459
:10154000CE3557E095958795779567955A95D1F75C
:101550006C0D7D1D8E1D9F1DF301718360831FC067
:101560002B803C806101EE24D7FCE094FE2CBC0172
:10157000CD01620F731F841F951FA70196010E9462
:10158000CE3547E095958795779567954A95D1F73C
:10159000C61AD70AE80AF90AF301D182C0822F805D
:1015A00038849101442737FD4095542FC801AA275C
:1015B00097FDA095BA2F4B805C8057FC1EC072012E
:1015C0000027F7FC0095102FBC01CD01620F731F9F
:1015D000841F951FA80197010E94CE3537E095958D
:1015E0008795779567953A95D1F76E0D7F1D801F8A
:1015F000911FF4017183608321C029803A807101B9
:101600000027F7FC0095102F59016A01A81AB90AA2
:10161000CA0ADB0AC601B501A80197010E94CE35AE
:1016200027E095958795779567952A95D1F7E61ADE
:10163000F70A080B190BF401F182E082F4018081B2
:101640009181F2E081309F072CF080E092E0F4017C
:1016500091838083F30180819181F2E081309F0743
:101660002CF080E092E0F30191838083F40180818B
:101670009181FEEF80309F072CF480E09EEFF40113
:1016800091838083F30180819181FEEF80309F07F9
:101690002CF480E09EEFF3019183808328960FB6AF
:1016A000F894DEBF0FBECDBFCF91DF911F910F9198
:1016B000FF90EF90DF90CF90BF90AF909F908F9072
:1016C0007F906F905F904F903F902F900895809102
:1016D00078169091791621E0843A9207DCF0809197
:1016E0007A1690917B1621E0843A92079CF08091C3
:1016F0007C1690917D1621E0843A92076CF081E08F
:1017000020917E1630917F1691E0243A39072CF013
:1017100080E0089581E0089581E0089581E080935C
:101720003D18089510923D18089581E080933E1869
:10173000089510923E1808950895FC01208131818A
:101740002115310569F410920117109200171092BB
:10175000EC1B1092EB1B1092061C1092051C0895B6
:1017600080912C1890912D1841E08E3094074CF008
:10177000121613061CF428E631E01AC028E631E000
:1017800008C0843B910574F0121613067CF424EB18
:1017900030E0281B390B3595279535952795275E21
:1017A0003F4F22C08A35910594F0EECF24EB30E014
:1017B000281B390B359527953595279589E190E0BC
:1017C000821B930B9093D2038093D10311C0959504
:1017D0008795959587951216130614F44996F2CFBE
:1017E00029E130E0281B390B3093D2032093D10339
:1017F000A091EB1BB091EC1BB093061CA093051CB1
:10180000208131818091F0169091F11637FD03C04F
:10181000281B390B02C0280F391F3093EC1B209373
:10182000EB1B4091EB1B5091EC1B809100179091AA
:101830000117840F951F909301178093001726E0DE
:10184000813492071CF080E496E006C029EF803CCA
:10185000920734F480EC99EF90930117809300176E
:1018600080910017909101179C01220F331F280FC0
:10187000391FBA01660F771FCA01880F991F880F99
:10188000991F880F991F680F791F260F371FCD01E9
:10189000841B950B880F991F280F391F6081718158
:1018A0004091D1035091D203649FC001659F900D78
:1018B000749F900D1124280F391F3093FF16209329
:1018C000FE1637FF0CC08181880F880B992787FD92
:1018D0009095822393239093FF168093FE16809118
:1018E000FE169091FF161816190644F48081918116
:1018F00097FF04C01092FF161092FE168091FE16FC
:101900009091FF164DE5813C940734F080EC9DE505
:101910009093FF168093FE168091FE169091FF160D
:1019200022EA8034920734F480E492EA9093FF161E
:101930008093FE168091FE169091FF1624E09595F7
:1019400087952A95E1F79183808342E0813094075F
:1019500024F080E092E091838083808191812EEF5A
:101960008030920724F480E09EEF91838083089575
:10197000FC01208131812115310569F41092031792
:10198000109202171092151C1092141C1092EE1B4C
:101990001092ED1B089580912C1890912D1841E024
:1019A0008E3094074CF0121613061CF428E631E032
:1019B0001AC028E631E008C0843B910574F0121685
:1019C00013067CF424EB30E0281B390B3595279562
:1019D00035952795275E3F4F22C08A35910594F0B3
:1019E000EECF24EB30E0281B390B35952795359544
:1019F000279589E190E0821B930B9093D403809309
:101A0000D30311C095958795959587951216130662
:101A100014F44996F2CF29E130E0281B390B3093BA
:101A2000D4032093D303A091141CB091151CB09340
:101A3000EE1BA093ED1B208131818091F2169091D5
:101A4000F31637FD03C0281B390B02C0280F391FBE
:101A50003093151C2093141C4091141C5091151C9C
:101A60008091021790910317840F951F909303178D
:101A70008093021726E0813492071CF080E496E000
:101A800006C029EF803C920734F480EC99EF9093E4
:101A900003178093021780910217909103179C01FE
:101AA000220F331F280F391FBA01660F771FCA0193
:101AB000880F991F880F991F880F991F680F791F2A
:101AC000260F371FCD01841B950B880F991F280FF8
:101AD000391F608171814091D3035091D403649F79
:101AE000C001659F900D749F900D1124280F391F20
:101AF0003093FD162093FC1637FF0CC08181880FB0
:101B0000880B992787FD9095822393239093FD1648
:101B10008093FC168091FC169091FD1618161906FC
:101B200044F48081918197FF04C01092FD161092B9
:101B3000FC168091FC169091FD164DE5813C9407B2
:101B400034F080EC9DE59093FD168093FC16809117
:101B5000FC169091FD1622EA8034920734F480E45A
:101B600092EA9093FD168093FC168091FC1690915A
:101B7000FD1624E0959587952A95E1F7918380835A
:101B800042E08130940724F080E092E091838083EA
:101B9000808191812EEF8030920724F480E09EEFC7
:101BA000918380830895FC0180819181009769F47D
:101BB00010920317109202171092151C1092141C09
:101BC0001092EE1B1092ED1B08954091141C509141
:101BD000151C5093EE1B4093ED1B80819181209149
:101BE000F2163091F31697FD03C0821B930B02C0CF
:101BF000820F931F9093151C8093141C2091141C2A
:101C00003091151C8091021790910317820F931F3A
:101C1000909303178093021766E0813496071CF0B7
:101C200080E496E006C069EF803C960734F480ECCF
:101C300099EF909303178093021780910217909168
:101C40000317880F991FA9E1B0E02A9FB0012B9FCD
:101C5000700D3A9F700D1124860F971F421B530B76
:101C60009A01220F331F240F351F820F931F2081EB
:101C7000318143E0220F331F4A95E1F7820F931F12
:101C80009093FD168093FC1697FF0CC02181220FC4
:101C9000220B332727FD3095282339233093FD1657
:101CA0002093FC168091FC169091FD1618161906CB
:101CB00044F48081918197FF04C01092FD16109228
:101CC000FC168091FC169091FD162DE5813C920743
:101CD00034F080EC9DE59093FD168093FC16809186
:101CE000FC169091FD1662EA8034960734F480E485
:101CF00092EA9093FD168093FC168091FC169091C9
:101D0000FD1624E0959587952A95E1F791838083C8
:101D10001816190614F44E9603C0009719F04E9742
:101D2000918380838081918122E08130920724F029
:101D300080E092E091838083808191816EEF80309A
:101D4000960724F480E09EEF918380830895FC0140
:101D500080819181009769F4109201171092001709
:101D60001092EC1B1092EB1B1092061C1092051C9B
:101D700008954091EB1B5091EC1B5093061C40932F
:101D8000051C808191812091F0163091F11697FD0C
:101D900003C0821B930B02C0820F931F9093EC1B16
:101DA0008093EB1B2091EB1B3091EC1B8091001773
:101DB00090910117820F931F909301178093001742
:101DC00066E0813496071CF080E496E006C069EF77
:101DD000803C960734F480EC99EF90930117809340
:101DE00000178091001790910117880F991FA9E1A2
:101DF000B0E02A9FB0012B9F700D3A9F700D112407
:101E0000860F971F421B530B9A01220F331F240F7B
:101E1000351F820F931F20813181B3E0220F331FC2
:101E2000BA95E1F7820F931F9093FF168093FE16E9
:101E300097FF0CC02181220F220B332727FD3095FD
:101E4000282339233093FF162093FE168091FE1627
:101E50009091FF161816190644F48081918197FF1E
:101E600004C01092FF161092FE168091FE169091FB
:101E7000FF162DE5813C920734F080EC9DE59093B0
:101E8000FF168093FE168091FE169091FF1662EA6F
:101E90008034960734F480E492EA9093FF1680939E
:101EA000FE168091FE169091FF16A4E095958795F9
:101EB000AA95E1F7918380831816190614F44E96BB
:101EC00003C0009719F04E979183808380819181A0
:101ED00022E08130920724F080E092E091838083B9
:101EE000808191816EEF8030960724F480E09EEF30
:101EF000918380830895CF93DF93EAE7F0E0108227
:101F0000ABE7B0E01C92CCE7D0E01882808186601D
:101F100080838881806488838081806280838C91C3
:101F2000887F8C93808188608083808180688083B3
:101F3000808180648083DF91CF9108951F920F92FA
:101F40000FB60F920BB60F9211242F933F934F931E
:101F50005F936F938F939F93AF93BF93EF93FF9391
:101F60008091351890913618A0913718B091381893
:101F70000196A11DB11D8093351890933618A0933A
:101F80003718B09338188091780090E0409179002C
:101F9000342F20E0822B932B2091C816223009F495
:101FA000FDC0233030F4222359F0213009F046C11E
:101FB000E8C0233009F413C1243009F03FC11CC12B
:101FC000E0913316EE3061F42091CE16223041F4C8
:101FD0009093CD168093CC161092CE16469807C0DB
:101FE000F0E0EE0FFF1FE85CF94E91838083609173
:101FF0003316E62FF0E060FFB6C0DF01AA0FBB1F6B
:10200000AA5CB94E8D919C91EE0FFF1FE85CF94ED2
:1020100040815181262F269530E0841B950BF901D4
:10202000EE0FFF1FDF01A058B94E4D915C91119743
:10203000841B950BE859F94E9183808397FF02C06A
:1020400011821082F901EE0FFF1FE859F94E8081CD
:10205000918144E08130940724F080E094E0918302
:1020600080836031F0F5220F331FF901E859F94EF2
:10207000808191818C3391051CF42053394E0EC020
:10208000AC01445C5F4F559547954837510544F482
:102090002053394ECC9795958795CC96F9011FC062
:1020A000AC01445D5E4F5595479555954795F901AF
:1020B000E053F94E443B51054CF4845B90409595B8
:1020C00087959595879588589F4F09C0845A914068
:1020D000A3E095958795AA95E1F78C549F4F91833E
:1020E000808380913E188823E1F180917816909149
:1020F0007916F1E0843A9F07C4F080917A169091A6
:102100007B1621E0843A920784F080917C169091AE
:102110007D1641E0843A940744F080917E169091B8
:102120007F16E1E0843A9E07E4F481E080933F1853
:102130001092F7161092F6161092A9001092A800AD
:102140001092AB001092AA001092F5161092F4169D
:10215000109299001092980010929B0010929A0091
:1021600002C010923F18809133168F5F8093331610
:10217000883108F463C01092331681E08093CF1643
:102180005DC02091E2163091E316280F391F369575
:1021900027953093E3162093E21650C04091D70361
:1021A000442309F44BC0639949C0649947C04F5F09
:1021B0004093D703453008F441C02091EE1630918A
:1021C000EF16280F391F3093EF162093EE16483084
:1021D000A9F51092D70381E08093D6032FC02091F8
:1021E000E0163091E116280F391F36952795309368
:1021F000E1162093E01622C04091D8034423F1F069
:102200002091000123FD1AC02091000124FD16C079
:102210004F5F4093D803453088F02091EC16309101
:10222000ED16280F391F3093ED162093EC16483029
:1022300029F41092D80381E08093D5038091C916C8
:10224000823081F1833030F4882351F0813009F0FD
:10225000CAC01AC08330E9F1843009F0C4C050C04C
:10226000809133168695809332168091CA16882302
:1022700011F481E005C0813011F482E001C085E0F5
:102280008093C81681E00BC080913416809332167B
:10229000809137168093CB161092C81682E08093F7
:1022A000C916A1C0809135168093321680913616DA
:1022B0008093CA168091CB16882311F483E005C061
:1022C000813011F484E001C085E08093C81683E07A
:1022D000E6CF809134168093321680913716809322
:1022E000CB168091CA16882311F481E005C0813095
:1022F00011F482E001C085E08093C81684E0CFCF5E
:102300009091351690933216909136169093CA1686
:102310009091CB16992311F483E003C0913009F01A
:1023200085E08093C8161092C916809133168E30BE
:1023300041F48091CE16813021F482E08093CE1654
:10234000469A80913316282F30E080FF4CC08031B0
:1023500058F4282F269581E090E002C0880F991F3D
:102360002A95E2F782B93FC080913C18882369F42E
:10237000205130403595279581E090E002C0880FCC
:10238000991F2A95E2F78093050180913C188130CE
:1023900099F4409105018091331690E0409795950E
:1023A000879521E030E002C0220F331F8A95E2F7C3
:1023B000209524232093050180913C18823099F4C4
:1023C000409105018091331690E04097959587954F
:1023D00021E030E002C0220F331F8A95E2F72095FA
:1023E00024232093050180913216883048F480918F
:1023F0007B00877F80937B0080913216805C08C0D1
:1024000080917B00886080937B0080913216885C8D
:1024100080937C008091C9168230D1F480913C1861
:10242000882331F480910501807F8093050112B8E3
:1024300080913C18813021F48FEF8093050112B810
:1024400080913C18823021F48FEF8093050112B8FF
:10245000FF91EF91BF91AF919F918F916F915F919C
:102460004F913F912F910F900BBE0F900FBE0F9089
:102470001F9018958091E1030E94F216882321F0A5
:102480000E94411781E0089586E10E94491785E482
:102490000E9449170E94411780E008958091E1034E
:1024A0000E94F2168823E1F48DE20E94491788E029
:1024B0000E9449170E9441178091E1030E94F21681
:1024C000882371F481E30E94491780E00E94491734
:1024D0000E9441178091E1030E94F216882321F0A7
:1024E0000E94411781E008958CE20E94491789E01B
:1024F0000E9449170E94411780E008950E94EA1641
:102500000E943A12882389F086EA90E09093E203D1
:102510008093E1030E944E12882321F082E0809391
:102520001918089581E0809319180895FF920F9368
:102530001F93DF93CF930F92CDB7DEB78091191819
:10254000882331F48091E1030E94F21680E008C0F4
:10255000813009F059C08091E1030E94F21682E3B4
:102560000E9449178091E1038F5F0E943E170E94ED
:102570005A17082F0E945A17F82E0E945A17182F20
:102580000E94641789830E9441179091161C4F2D59
:10259000552747FD5095E02FFF27E7FDF0958981EE
:1025A000282F332727FD3095612F772767FD7095FA
:1025B000992369F0542F44274E2B5F2B50931B18FF
:1025C00040931A18322F2227262B372B18C0542F4E
:1025D00044274E2B5F2B8091201890912118481B87
:1025E000590B50931B1840931A18322F2227262B71
:1025F000372B8091221890912318281B390B309388
:102600001D1820931C1808C010921B1810921A183D
:1026100010921D1810921C180F90CF91DF911F91EE
:102620000F91FF900895EF92FF920F931F93DF9306
:10263000CF9300D000D0CDB7DEB780911918882392
:1026400009F060C08091E1030E94F21680E00E94D0
:1026500049178091E1038F5F0E943E178E010F5F43
:102660001F4F86E0E82EF12CEC0EFD1E0E945A173B
:10267000F80181938F01EE15FF05C1F70E946417E1
:102680008E830E9441173091161C4A81E9812C816A
:102690009B818E816D81332309F062C0552747FDF0
:1026A0005095542F4427FF27E7FDF0954E2B5F2BC5
:1026B000E0912018F09121184E1B5F0B50931B18CE
:1026C00040931A18332727FD3095322F2227492FA0
:1026D000552747FD5095242B352B409122185091BA
:1026E0002318241B350B30931D1820931C18992791
:1026F00087FD9095982F8827772767FD7095862B03
:10270000972B8AC0813009F092C08091E1030E942A
:10271000F21682E30E9449178091E1038F5F0E94C5
:102720003E178E010F5F1F4FE6E0EE2EF12CEC0EF0
:10273000FD1E0E945A17F80181938F01EE15FF05C7
:10274000C1F70E9464178E830E9441173091161CB6
:102750004A81E9812C819B818E816D81332341F1F6
:10276000552747FD5095542F4427FF27E7FDF09547
:102770004E2B5F2B50931B1840931A18332727FDBD
:102780003095322F2227492F552747FD5095242B6E
:10279000352B30931D1820931C18992787FD909591
:1027A000982F8827772767FD7095862B972B3AC03F
:1027B000552747FD5095542F4427FF27E7FDF095F7
:1027C0004E2B5F2BE0912018F09121184E1B5F0BD0
:1027D00050931B1840931A18332727FD3095322F3A
:1027E0002227492F552747FD5095242B352B409103
:1027F000221850912318241B350B30931D18209359
:102800001C18992787FD9095982F8827262F332706
:1028100027FD3095822B932B209124183091251879
:10282000821B930B90931F1880931E180CC010925C
:102830001B1810921A1810921D1810921C18109242
:102840001F1810921E1826960FB6F894DEBF0FBE02
:10285000CDBFCF91DF911F910F91FF90EF90089521
:102860000F931F93CF93DF931092DA031092DB0341
:102870001092DC0380E00E9472048091DB030E94CE
:1028800086048091DC030E949A0410923B181092F7
:102890003A1881E08093161C01E010E0C8C00E9445
:1028A000131360913A1870913B18613171050CF067
:1028B00074C08091CF16882309F4B9C01092CF1646
:1028C00061157105F9F4E8E9F6E1A0E8B6E11192C5
:1028D0001192119211921D921D9286E1E83CF80727
:1028E000B1F71092271810922618109229181092FA
:1028F000281810922B1810922A1810933B18009346
:102900003A1895C0C8E6D6E1E8E9F6E1299139918F
:10291000442737FD4095542F80819181A281B38156
:10292000820F931FA41FB51F81939193A193B1931D
:1029300086E1C038D80751F7809126189091271862
:1029400020911A1830911B18820F931F909327180B
:1029500080932618809128189091291820911C188E
:1029600030911D18820F931F909329188093281877
:1029700080912A1890912B1820911E1830911F18C1
:10298000820F931F90932B1880932A186F5F7F4FAD
:1029900070933B1860933A184AC0E8E9F6E1C0E842
:1029A000D6E181919191A191B19154E0B695A7950D
:1029B000979587955A95D1F78993999386E1E83C45
:1029C000F80779F7E0E9F6E1808191818050924043
:1029D0008193919386E1E839F807B1F78091261841
:1029E0009091271844E0959587954A95E1F7909343
:1029F000211880932018809128189091291834E08C
:102A0000959587953A95E1F790932318809322182E
:102A100080912A1890912B1824E0959587952A95F6
:102A2000E1F790932518809324181092161C80913A
:102A3000161C882309F033CF8FEF8093DA0380933D
:102A4000DB038093DC030E9472048091DB030E940D
:102A500086048091DC030E949A04DF91CF911F913C
:102A60000F910895809119188823A9F48091E103AA
:102A70000E94F21680E00E9449178091E1038F5F67
:102A80000E943E170E945A1780932F180E945A17CF
:102A90008093301808958130C9F48091E1030E9439
:102AA000F21682E30E9449178091E1038F5F0E9432
:102AB0003E170E945A1780932F180E945A1780932E
:102AC00030180E945A1780933118089510921B18DD
:102AD00010921A1810921D1810921C1810921F189C
:102AE00010921E18089580911918882309F072C059
:102AF0000E945A17809331180E945A1780933218F7
:102B00000E945A17809333180E94641780933418D8
:102B10000E9441173091161C209132189091311863
:102B200080913418609133183323E1F0E09130182C
:102B3000FF27E7FDF0955E2F4427E0912F18FF2730
:102B4000E7FDF0954E2B5F2B50931B1840931A18FE
:102B5000332727FD3095322F2227492F552747FD50
:102B600050956FC040913018552747FD5095542F10
:102B70004427E0912F18FF27E7FDF0954E2B5F2BA0
:102B8000E0912018F09121184E1B5F0B50931B18F9
:102B900040931A18332727FD3095322F2227492FCB
:102BA000552747FD5095242B352B409122185091E5
:102BB0002318241B350B30931D1820931C189927BC
:102BC00087FD9095982F8827772767FD7095862B2E
:102BD000972B81C0813009F089C00E945A178093D9
:102BE00032180E945A17809333180E9464178093FA
:102BF00034180E9441179091161C20913218809130
:102C0000341860913318992369F140913018552791
:102C100047FD5095542F4427E0912F18FF27E7FDDB
:102C2000F0954E2B5F2B50931B1840931A183327A7
:102C300027FD3095322F222740913118552747FD27
:102C40005095242B352B30931D1820931C18992751
:102C500087FD9095982F8827772767FD7095862B9D
:102C6000972B3FC040913018552747FD5095542F62
:102C70004427E0912F18FF27E7FDF0954E2B5F2B9F
:102C8000E0912018F09121184E1B5F0B50931B18F8
:102C900040931A18332727FD3095322F2227409171
:102CA0003118552747FD5095242B352B409122187C
:102CB00050912318241B350B30931D1820931C189A
:102CC000992787FD9095982F8827262F332727FD52
:102CD0003095822B932B2091241830912518821B3C
:102CE000930B90931F1880931E18089510921B1831
:102CF00010921A1810921D1810921C1810921F187A
:102D000010921E180895EF92FF920F931F938091D7
:102D10001E1890911F1897FF03C0909581959F4FA3
:102D20008031910520F481E08093E30302C010928A
:102D3000E3038091E2039091E303891761F48091AA
:102D40002E188F5F80932E18853038F010922E1831
:102D50009093E40302C010922E189093E2036091C6
:102D60001A1870911B18882777FD8095982F0E945C
:102D700080337B018C0160911C1870911D1888278D
:102D800077FD8095982F0E9480339B01AC01C8018C
:102D9000B7010E94053721EE3EE245E652E40E946B
:102DA00081320E94DE339B0170932D1860932C18A2
:102DB00077FF06C028593E4F30932D1820932C18CA
:102DC0001F910F91FF90EF9008951092B80010920C
:102DD000BC000895589A599A1092B90081E08093E6
:102DE000B800089594EA9093BC009091BC0097FFBE
:102DF000FCCF9091B900987F983011F0903199F400
:102E00008093BB0084E88093BC008091BC0087FF66
:102E1000FCCF9091B900987F983139F081E09034DF
:102E200029F480E0089581E0089580E0089544EA5F
:102E300034E824E94093BC009091BC0097FFFCCF9C
:102E40009091B900987F983011F0903199F7809364
:102E5000BB003093BC009091BC0097FFFCCF9091D9
:102E6000B900987F903211F0983539F42093BC0066
:102E70009091BC0094FDFCCFDDCF08950E94F21626
:102E8000089584E98093BC008091BC0084FDFCCF50
:102E900008958093BB0084E88093BC008091BC00BF
:102EA00087FFFCCF9091B900987F81E0983209F4B8
:102EB00080E0089584EC8093BC008091BC0087FF83
:102EC000FCCF8091BB00089584E88093BC00809182
:102ED000BC0087FFFCCF8091BB0008952091461A6B
:102EE0003091471A482F592FDA01F901E05CF74E6B
:102EF00080E090E003C04D914193019686179707BB
:102F0000D1F7280F391F3093471A2093461A089596
:102F1000DF93CF930F920F92CDB7DEB79A83898359
:102F2000CE01019662E070E00E946E170F900F9044
:102F3000CF91DF910895DF92EF92FF920F931F934D
:102F4000DF93CF930F92CDB7DEB7182F092FA82F9D
:102F5000B92FFD0101900020E9F73197EA1BFB0B27
:102F6000E9837E010894E11CF11CC70161E070E077
:102F70000E946E17C801092F182FDE2CEF2C07C0F6
:102F800089838D2D9E2D61E070E00E946E17F801FF
:102F900081918F018823A1F70F90CF91DF911F912D
:102FA0000F91FF90EF90DF9008958F929F92AF92D4
:102FB000BF92CF92DF92EF92FF920F931F93DF9316
:102FC000CF9300D0CDB7DEB74C01CB0159011092A1
:102FD000471A1092461A4A835B830E9488174A81D7
:102FE0005B81E42EF52E00E010E06E010894C11C18
:102FF000D11C0BC0F70181917F018983C60161E07B
:1030000070E00E946E170F5F1F4F0A151B0590F3AB
:103010004091461A5091471AC40160E478E10E9439
:103020001A010F900F900F90CF91DF911F910F9188
:10303000FF90EF90DF90CF90BF90AF909F908F90D8
:103040000895CF92DF92EF92FF920F931F93CF9349
:10305000DF936C01EB018A011092471A1092461A15
:1030600085E090E90E948817CE010E9488177E01B2
:10307000EE0CFF1C0C0F1D1F10C0D6011896ED9111
:10308000FC911997EE0DFF1D808191810E94881798
:10309000219682E090E0E80EF91EC017D10768F390
:1030A0004091461A5091471AC60160E478E10E94A7
:1030B0001A01DF91CF911F910F91FF90EF90DF9058
:1030C000CF9008958F929F92AF92BF92CF92DF924E
:1030D000EF92FF920F931F93DF93CF930F920F9274
:1030E000CDB7DEB78C010E94F1006C01C8010E94CF
:1030F0000101882EE92EC8010E94F400F82EA92EA5
:103100001092471A1092461A80E090E90E948817A0
:10311000D6018D919C910E949B1784E090E00E94C3
:103120008817F801828193810E948817D8011A9626
:103130008D919C911B970E948817F8018681978139
:103140000E948817F60180E090E001C0019622817C
:103150003381349621153105C9F70E9488178A2DCD
:10316000AF2CB82EF50180E090E001C001962081DF
:103170003181349621153105C9F70E9488178E2DAB
:10318000E82CF82EF70180E090E001C00196219133
:10319000319121153105D1F70E9488174091461AC7
:1031A0005091471AC80160E478E10E941A0121C0D9
:1031B0001092471A1092461A81E090E90E948817EF
:1031C000D60112968D919C9113970E948817F60153
:1031D000848195810E949B174091461A5091471A0D
:1031E000C80160E478E10E941A0184E090E0C80E12
:1031F000D91ED60114968D919C9115970097C1F612
:1032000021C01092471A1092461A82E090E90E945B
:103210008817F501808191810E949B17D501129634
:103220008D919C9113970E949B174091461A509143
:10323000471AC80160E478E10E941A01E4E0F0E076
:10324000AE0EBF1ED5018D919C9111970097C9F6C6
:103250005FC01092471A1092461A83E090E90E94CC
:103260008817D701ED91FC91808191810E949B1775
:10327000D701ED91FC91828193810E949B17D70128
:10328000ED91FC91119780E090E001C001962481BE
:103290003581349621153105C9F70E948817CC2451
:1032A000DD2415C09A838983C40162E070E00E9426
:1032B0006E17D701ED91FC91CC0CDD1CCC0CDD1C04
:1032C000EC0DFD1D868197810E949B176501D7013A
:1032D000ED91FC91119756010894A11CB11CC501F8
:1032E000880F991F880F991FE80FF91F808191811E
:1032F0000097C1F64091461A5091471AC80160E400
:1033000078E10E941A01E2E0F0E0EE0EFF1E04C038
:103310004E010894811C911CD7018D919C911197AD
:10332000009709F096CF0F900F90CF91DF911F91EA
:103330000F91FF90EF90DF90CF90BF90AF909F9054
:103340008F900895EF92FF920F931F93DF93CF9387
:103350000F920F92CDB7DEB78C010E94F1007C0175
:10336000C80160E478E146E052E09E012F5F3F4FE4
:103370000E948801009709F448C06091401870913C
:1033800041189C01225030403695279577FD38C072
:10339000D8011E968C911E9781FF02C080FD35C01A
:1033A000D7011696ED91FC9117971A96ED90FC9027
:1033B0001B97D80118968D919C911997DF01AA0F40
:1033C000BB1FA80FB91F49815A814D935C93A2E49A
:1033D000B8E13196EE0FFF1FE80FF91F80E090E093
:1033E00005C04D915D914193519301968E159F05B6
:1033F00018F482179307A8F3C8010E940F1F05C095
:10340000C80142E458E10E943C1F0F900F90CF91F9
:10341000DF911F910F91FF90EF900895CF93DF936D
:10342000EC01CB01BA012231310508F08AC0F90163
:10343000EE58FF4FEE0FFF1F0590F491E02D199409
:103440009C01042E02C0220F331F0A94E2F77BC0B6
:103450009C01042E02C0359527950A94E2F773C0AB
:103460009A01280F391F6FC09C01241B350B6BC0BC
:10347000489F9001499F300D589F300D112463C023
:1034800041155105C1F480E090E0009729F0CE018C
:1034900060E070E00E94000082E090E09F878E87ED
:1034A000AE01405F5F4FCE0167E070E922E030E09F
:1034B0000E94D51746C00E9401369B0144C00E945D
:1034C00001369C0140C09A01282B392B3CC09A013F
:1034D0002827392738C09A012823392334C021E00E
:1034E00030E08417950769F52EC021E030E084179D
:1034F000950749F526C021E030E0481759071CF12F
:1035000020C021E030E084179507ECF41AC021E0D8
:1035100030E084179507BCF014C021E030E0481774
:1035200059078CF40EC0009719F008C0009749F0B5
:1035300021E030E06115710531F403C021E030E095
:1035400002C020E030E0C901DF91CF910895FC0175
:10355000118A108A1786168615AA14AAA481B58125
:103560001D921C9226813781220F331F8085918501
:1035700060E070E0A9010E94EF360895CF93DF93D9
:10358000FC01A481B5818D919C911197ED01E1E041
:10359000F0E00FC02A813B8124962617370741F4BB
:1035A0003196EE0FFF1FEA0FFB1F2081318106C00D
:1035B0003296E817F90770F320E030E0C901DF9197
:1035C000CF910895EF92FF920F931F93DF93CF93C4
:1035D00000D000D0CDB7DEB78C01DC0114966D9120
:1035E0007C91159750962D913C915197F901EE0FD2
:1035F000FF1FE60FF71FE080F180C701892F992791
:1036000082958F708730910509F463C188309105E8
:1036100010F58330910509F485C08430910548F494
:103620008130910509F446C08230910508F061C0EF
:103630003AC08530910509F4B6C0D8011C96ED91C9
:10364000FC911D9752964D915C9153978630910550
:1036500008F0E4C088C08B30910509F4EBC18C30D0
:103660009105A0F48930910509F47EC1D8011C961A
:10367000ED91FC911D9752964D915C915397970156
:1036800030708A30910508F07FC14BC18D309105B3
:1036900009F405C28D30910508F4F5C18E3091050D
:1036A00009F031C219C2F801868597858E7F978708
:1036B000868729C2D8011C96ED91FC911D975296E0
:1036C0008D919C915397019653969C938E9352970C
:1036D000880F991FE80FF91F04E0EE0CFF1C0A95F4
:1036E000E1F714E0F594E7941A95E1F7F182E082AE
:1036F000D0C1D8011C96ED91FC911D9752968D91E9
:103700009C915397019653969C938E935297880F52
:10371000991FE80FF91F2F5F3F4F220F331F260F0E
:10372000371F71C0D8011C962D913C911D97529660
:103730008D919C915397019653969C938E9352979B
:10374000880F991F280F391FC7019F70880F991F75
:1037500018960D90BC91A02DA80FB91F8D919C912A
:103760001197F901FEC0C7019F70880F991FD801FA
:1037700018962D913C911997280F391FCA01880F6F
:10378000991F8E0F9F1FFC0180819181D901119695
:103790009C938E9341505040F801538B428B80890B
:1037A000918901966DC1F9013196EE0FFF1FE60F69
:1037B000F71F60817181D80152968D919C9153972A
:1037C000880F991F1C96ED91FC911D97E80FF91F2A
:1037D000408151814617570748F03A8329837C83FB
:1037E0006B835E834D8382E090E03CC0C7019F7095
:1037F000840F951F880F991FD80118962D913C9121
:103800001997280F391FD9018D919C911197918398
:103810008083F80180899189029632C1D90111967D
:10382000AA0FBB1FA60FB71F8D919C91DA011197AC
:10383000AA0FBB1FAE0FBF1F6D917C91DA01AA0FBB
:10384000BB1FAE0FBF1F4D915C91119748175907D1
:1038500010F13A8329839C838B835E834D8382E0BE
:1038600090E0D8011F969C938E931E97C80166E046
:1038700070E9AE014F5F5F4F26E030E00E94D51740
:1038800080E090E0009709F43EC1C80160E070E07C
:103890000E94000038C1C7019F70840F951F880FD8
:1038A000991FD8011896ED91FC911997E80FF91F0F
:1038B0007183608352968D919C9153970297539692
:1038C0009C938E93529750968D919C91519702960E
:1038D000FEC0F80182899389880F991F0484F585B9
:1038E000E02DE80FF91F808191812FEFE222FF2464
:1038F000A1E0EA16F10449F0B1E0EB16F10438F06A
:1039000022E0E216F10451F406C097FF2AC0909518
:1039100081959F4F26C08095909523C080E090E0D0
:1039200020C0DA011197AA0FBB1FAE0FBF1F6D9108
:103930007C91DA01AA0FBB1FAE0FBF1F4D915C91A6
:10394000C8010E940E1AF8012289338921503040A3
:10395000338B228B220F331F0484F585E02DE20F79
:10396000F31F9183808394C054E0EE0CFF1C5A95A2
:10397000E1F744E0F594E7944A95E1F7E20EF31E8F
:10398000F801F18AE08ABFC0DA011197AA0FBB1FC4
:10399000AE0FBF1F6D917C91DA01AA0FBB1FAE0F56
:1039A000BF1F4D915C91C8010E940E1AD80152961A
:1039B0002D913C9153972250304053963C932E9337
:1039C0005297009721F0F0FE12C0F1FE10C0F801EE
:1039D0004481558160897189FB013196EE0FFF1F8B
:1039E000E40FF51F208131810097A1F002C022E091
:1039F00030E0D80150968D919C915197880F991F76
:103A00001496ED91FC911597E80FF91F8081918133
:103A1000926008C0FB01EE0FFF1FE40FF51F8081CD
:103A200091819D7F91838083F80180899189820FA4
:103A3000931F26C0F701FF70D9011196AA0FBB1F73
:103A4000A60FB71F8D919C91880F991FD8011896CA
:103A50004D915C911997480F591F2E5F3F4F220FD0
:103A6000331F260F371FD9012D913C91220F331F91
:103A7000C801BF010E94D517F8018089918903967A
:103A8000918B808B40C0B7017F70C8010E94F80005
:103A9000D80150968D919C915197019618C0D801EC
:103AA0001C96ED91FC911D9752968D919C91539788
:103AB000019653969C938E935297880F991FE80F07
:103AC000F91F2F5F3F4F31832083C7019F705196AD
:103AD0009C938E93509717C0F801828993899C011B
:103AE000220F331F0484F585E02DE20FF31F2081A0
:103AF0003181D80151963C932E935097019753965C
:103B00009C938E93529726960FB6F894DEBF0FBE05
:103B1000CDBFCF91DF911F910F91FF90EF9008954E
:103B20006F927F928F929F92AF92BF92CF92DF92CD
:103B3000EF92FF920F931F93DF93CF93CDB7DEB732
:103B40007C014B016DB67EB6DB010D900020E9F7DC
:103B50008D0101501040061B170B63E0A62EB12CFF
:103B6000A00EB11EEDB7FEB7EA19FB090FB6F89427
:103B7000FEBF0FBEEDBFCDB6DEB60894C11CD11C92
:103B800080E090E0009721F0C701B4010E9400009E
:103B900082E090E0D7011F969C938E931E975096DB
:103BA0008D919C915197F6019183808302839601B8
:103BB0002D5F3F4FC901B401A8010E94E636C7013D
:103BC00069E070E9A60195010E94D5170FB6F89437
:103BD0007EBE0FBE6DBECF91DF911F910F91FF9002
:103BE000EF90DF90CF90BF90AF909F908F907F909D
:103BF0006F900895FC0124A935A9DC01549680E05A
:103C000090E010C06D917D914089518964177507CE
:103C100041F48685978582609787868721E030E02A
:103C200006C001968217930768F320E030E0C901CF
:103C300008950F931F93CF93DF93EC018B018E8533
:103C40009F8584609F878E8761157105A1F005C0EF
:103C5000CE010E94E21A015010408E859F8585702A
:103C600090708530910571F40115110589F70AC02E
:103C7000CE010E94E21A8E859F85857090708530F6
:103C80009105B1F38E859F858B7F9F878E87DF910E
:103C9000CF911F910F910895FC0184A995A98031BE
:103CA000910570F4DC011A96AA0FBB1FAE0FBF1F5F
:103CB00011967C936E93019695AB84AB81E0089549
:103CC00080E00895FC0124A935A9DC01549680E028
:103CD00090E01EC04D915D9146175707C1F42150E9
:103CE000304035AB24ABDC011A96AA0FBB1FAE0FD8
:103CF000BF1F07C0019612964D915C9113974D938B
:103D00005D9382179307B0F321E030E006C001967F
:103D100082179307F8F220E030E0C9010895FC0112
:103D200015AA14AA0895DF93CF9300D00F92CDB7B0
:103D3000DEB7FC01208931893A83298326853785BE
:103D40003C832B836AE070E9AE014F5F5F4F24E054
:103D500030E00E94D5170F900F900F900F90CF91E9
:103D6000DF9108950F931F93CF93DF93EC018B01A5
:103D70008E859F8584609F878E876115710539F1D7
:103D80000AC0CE010E94FA1D0097A9F4CE010E943C
:103D9000E21A015010408E859F85857090708530A5
:103DA0009105E1F40115110561F718C0CE010E94DB
:103DB000FA1D009749F08E859F8582609F878E87C8
:103DC000CE010E94931E0FC0CE010E94E21A8E8582
:103DD0009F85857090708530910541F38E859F8514
:103DE0008B7F9F878E87DF91CF911F910F910895D1
:103DF000FC01268520FF0FC021FD0DC024A935A997
:103E00002115310519F00E94B21E02C00E94191E30
:103E100021E030E002C020E030E0C90108950F93B6
:103E20001F93CF93DF93EC010E94BE1A8C01009781
:103E3000E9F08E8580FF0AC0AE01405F5F4FCE0182
:103E400068E070E922E030E00E94D517198B088BFA
:103E50008FEF9FEF9B8B8A8B8E859F8581609F87DD
:103E60008E8781FF03C0CE010E94931EC801DF919F
:103E7000CF911F910F910895EF92FF920F931F938F
:103E8000DF93CF9300D00F92CDB7DEB78C01CB017B
:103E9000FA0140EA6030740721F4C8010E946218F8
:103EA00021C160817181D8014D915C911197641796
:103EB000750709F017C1DF0112962150304040EA22
:103EC0008830940709F4AAC040EA8930940720F5A5
:103ED000A0EA84309A0709F487C0B0EA85309B07CE
:103EE00080F440EA8230940709F45CC0A0EA833091
:103EF0009A0708F067C0B0EA81309B0709F0F2C06A
:103F000031C0E0EA86309E0709F484C0F0EA8730C9
:103F10009F0708F073C076C040EA8C30940709F41C
:103F2000B5C020EA8D30920768F440EA8A309407E1
:103F300009F4A0C062817381E0EA8B309E0708F02B
:103F40009DC094C0F0EA8E309F0709F4C4C020EAF7
:103F50008E30920708F4BBC040EA8F30940709F016
:103F6000C1C0BDC02150304082819381880F991F0C
:103F7000A4E0EA2EF12CEE0EFF1E40E050E00FC050
:103F80004F5F5F4FD7016D917D917D01F801A48155
:103F9000B581A80FB91F11967C936E9302964217B4
:103FA000530770F382E090E0D8011F969C938E93A4
:103FB0001E97C8016FEF7FEF0E940F1F009709F057
:103FC00091C01CC0F801868597858D7F978786876D
:103FD000C8010E94931E80E090E0009709F482C01F
:103FE000C8010E9400007EC0D8011E968D919C9150
:103FF0001F9782601F969C938E931E97C8010E9404
:10400000931E70C0F801868580FF6CC0C8010E94B5
:10401000E21AF4CF82E090E0D801ECCF2281338124
:104020003A832983F80184A995A98031910580F408
:10403000FC013A96EE0FFF1FE00FF11F3183208342
:104040000196D801D5969C938E93D49781E001C0B8
:1040500080E08B831C82C8016BE070E9AE014F5F8A
:104060005F4F24E030E00E94D5173CC0C8010E9499
:10407000621E38C0F80115AA14AA34C012964D91D8
:104080005C911397C8010E9421182CC02150304028
:1040900082819381880F991F54E0E52EF12CEE0E5A
:1040A000FF1E40E050E00FC04F5F5F4FD7016D91A2
:1040B0007D917D01F801A085B185A80FB91F1196EA
:1040C0007C936E9302964217530770F30BC0C8019E
:1040D0000E945C0307C0C8010E94870303C0C80197
:1040E0000E94F7000F900F900F900F90CF91DF91EB
:1040F0001F910F91FF90EF900895FA0160817181F7
:1041000077FD07C00E94BE1A21E030E00097C9F099
:1041100016C020EA6030720778F042815381E0EAED
:1041200060307E0761F021E030E0FC018081918108
:104130004817590731F403C021E030E002C020E005
:1041400030E0C9010895DC0152962D913C915397BE
:10415000C901880F991F1C96ED91FC911D97E80FDE
:10416000F91F808191812150304053963C932E93CA
:10417000529708956F927F928F929F92AF92BF92C3
:10418000CF92DF92EF92FF920F931F93CF93DF9323
:104190004C01EB01009729F477FDC0C060E070E0AE
:1041A000BFC0209709F4B1C0BC0197FF04C06627C7
:1041B0007727681B790B882777FD8095982FCB018F
:1041C000772766279E01D7FF04C0222733272C1BA1
:1041D0003D0B442737FD4095542F0E941436AA24E6
:1041E000BB24E0E0F0E0DA01C9010A2C04C0B59577
:1041F000A795979587950A94D2F70097A105B105E1
:1042000009F0F5010894A11CB11C80E2A816B104C4
:1042100051F7BF016C50704077FF10C0CA01B9015F
:104220002CE832E040E050E00E94CE35BCE09595AD
:10423000879577956795BA95D1F75EC081E090E054
:10424000A0E0B0E00E2E04C0880F991FAA1FBB1F6C
:104250000A94D2F7281B390B4A0B5B0B389704C022
:104260005595479537952795EA95D2F7AFE16A2E90
:10427000712C622273226901F5E0D594C794FA95F6
:10428000E1F7E3E0660F771FEA95E1F7C60ED71E68
:10429000F601EE0FFF1FE456F44F6081718188270D
:1042A00077FD8095982F9301442737FD4095542F33
:1042B0000E94CE357B018C01F601EE0FFF1FE65602
:1042C000F44F60817181882777FD8095982FA6181B
:1042D000B7089501442737FD4095542F0E94CE35ED
:1042E000E60EF71E081F191F55E015950795F79460
:1042F000E7945A95D1F7B701D7FF09C080E090E85D
:104300009C01261B370BB90102C060E070E4181451
:10431000190434F0709561957F4F02C060E070E839
:10432000CB01DF91CF911F910F91FF90EF90DF9024
:10433000CF90BF90AF909F908F907F906F90089597
:10434000AF92BF92CF92DF92EF92FF920F931F93A3
:10435000CF93DF9397FF14C020EC8030920724F4B2
:104360009C012050304809C020EC8030920709F4AD
:1043700058C022273327281B390BC1E0D0E00CC0DE
:1043800020E4813092072CF020E030E8281B390B24
:1043900001C09C01C0E0D0E05901AA0CAB2CAA1CC2
:1043A000BB084FE7C42ED12CC222D322F501EE0F59
:1043B000FF1FE656F54F60817181882777FD809554
:1043C000982F9601442737FD4095542F0E94CE35F3
:1043D0007B018C0160E870E06C197D09882777FD0E
:1043E0008095982FF501EE0FFF1FE856F54F2081BD
:1043F0003181442737FD4095542F0E94CE35E60E7B
:10440000F71E081F191F87E015950795F794E79485
:104410008A95D1F79701209731F0309521953F4F3C
:1044200002C021E030E8C901DF91CF911F910F91C7
:10443000FF90EF90DF90CF90BF90AF9008958050A5
:10444000904C0E94A021089540E050E404C055958E
:1044500047955595479584179507CCF320E030E0B4
:1044600010C0BA01620F731F3595279586179707FD
:1044700024F0861B970B240F351F559547955595AE
:1044800047954115510569F7C9010895EF92FF92CB
:104490000F931F93CF93DF93EC010E94A3207C0125
:1044A000CE010E94A3208C01CE010E94A3209C017A
:1044B000A701440F551F000F111F80E090E012C0AC
:1044C00068857985FB01E40FF51F600F711FDB0123
:1044D0006D917C9111977183608301964E5F5F4F60
:1044E0000E5F1F4F8217930758F3DF91CF911F91F3
:1044F0000F91FF90EF900895EF92FF920F931F930B
:10450000CF93DF93EC010E94A3208C01CE010E9487
:10451000A3207C01CE010E94A3209C01EE0CFF1C75
:10452000000F111F80E090E010C048855985FA0106
:10453000E00FF11F4E0D5F1DDA014D915C91119757
:104540005183408301960E5F1F4F8217930768F3D4
:10455000DF91CF911F910F91FF90EF900895CF922F
:10456000DF92EF92FF920F931F93CF93DF93EC01B3
:104570000E94A3206C01CE010E94A3208C01CE01D9
:104580000E94A3207C01CE010E94A3209C0188856B
:104590009985F701EE0FFF1FE80FF91F4081518148
:1045A000D801AA0FBB1FA80FB91FF601EE0FFF1FFE
:1045B000E80FF91F80E090E007C06D917D91640FD6
:1045C000751F61937193019682179307B0F3DF9182
:1045D000CF911F910F91FF90EF90DF90CF900895B2
:1045E000AF92BF92CF92DF92EF92FF920F931F9301
:1045F000CF93DF93EC010E94A3207C01CE010E94A7
:10460000A3208C01CE010E94A3206C01CE010E9448
:10461000A3205C01A701440F551F000F111F960135
:10462000220F331F80E090E01CC0E885F9857F01F0
:10463000E40EF51EDF01A20FB31FE00FF11F6D9115
:104640007C9111970190F081E02D6E0F7F1FF70193
:104650007183608301964E5F5F4F0E5F1F4F2E5F29
:104660003F4F8A159B0508F3DF91CF911F910F9162
:10467000FF90EF90DF90CF90BF90AF900895AF92F2
:10468000BF92CF92DF92EF92FF920F931F93CF933F
:10469000DF93EC010E94A3207C01CE010E94A320A5
:1046A0008C01CE010E94A3206C01CE010E94A320A8
:1046B0005C01A701440F551F000F111F9601220F27
:1046C000331F80E090E01CC0E885F9857F01E40E8F
:1046D000F51EDF01A00FB11FE20FF31F6D917C915A
:1046E00011970190F081E02D6E1B7F0BF701718314
:1046F000608301964E5F5F4F0E5F1F4F2E5F3F4FEF
:104700008A159B0508F3DF91CF911F910F91FF90C0
:10471000EF90DF90CF90BF90AF900895AF92BF928F
:10472000CF92DF92EF92FF920F931F93CF93DF937D
:10473000EC010E94A3207C01CE010E94A3208C01E9
:10474000CE010E94A3206C01CE010E94A3205C0137
:10475000B701660F771FC801880F991FA601440F84
:10476000551F20E030E020C0E885F9857F01E60E86
:10477000F71EDF01A40FB51FE80FF91F0D911C9163
:10478000A081B1810A9FF0010B9FF00D1A9FF00DDF
:104790001124D7011196FC93EE932F5F3F4F6E5F6C
:1047A0007F4F02964E5F5F4F2A153B05E8F2DF917F
:1047B000CF911F910F91FF90EF90DF90CF90BF901E
:1047C000AF9008956F927F928F929F92AF92BF9217
:1047D000CF92DF92EF92FF920F931F93CF93DF93CD
:1047E000EC010E94A3207C01CE010E94A3208C0139
:1047F000CE010E94A3206C01CE010E94A3203C01A7
:104800004701880C991C5801AA0CBB1C8601000F9B
:10481000111FEE24FF243EC088859985FC01EA0D16
:10482000FB1D60817181FC01E00FF11F208131814E
:10483000442737FD4095542FE2E0F0E0AE0EBF1E56
:104840000E5F1F4F2115310541055105A1F06C0187
:10485000C80CD91C882777FD8095982F0E941436A4
:10486000F601318320830894E11CF11C82E090E082
:10487000880E991E0FC082E090E09F878E87AE0160
:10488000405F5F4FCE0167E070E922E030E00E94B8
:10489000D51704C0E614F70408F4BECFDF91CF911A
:1048A0001F910F91FF90EF90DF90CF90BF90AF904E
:1048B0009F908F907F906F900895AF92BF92CF920C
:1048C000DF92EF92FF920F931F93CF93DF93EC0150
:1048D0000E94A3206C01CE010E94A3207C01CE0186
:1048E0000E94A3208C01CE010E94A3205C01A7019D
:1048F000440F551F000F111F9601220F331F80E038
:1049000090E01FC0688579857B01E20EF31E6B0184
:10491000C00ED11E640F751FDB01ED91FC91D60115
:104920006D917C911197E617F7070CF4BF01F70121
:104930007183608301964E5F5F4F0E5F1F4F2E5F46
:104940003F4F8A159B05F0F2DF91CF911F910F9198
:10495000FF90EF90DF90CF90BF90AF900895AF920F
:10496000BF92CF92DF92EF92FF920F931F93CF935C
:10497000DF93EC010E94A3206C01CE010E94A320D2
:104980007C01CE010E94A3208C01CE010E94A320B5
:104990005C01A701440F551F000F111F9601220F44
:1049A000331F80E090E01FC0688579857B01E20EAF
:1049B000F31E6B01C00ED11E640F751FDB01ED915C
:1049C000FC91D6016D917C9111976E177F070CF4C5
:1049D000BF01F7017183608301964E5F5F4F0E5FE9
:1049E0001F4F2E5F3F4F8A159B05F0F2DF91CF914D
:1049F0001F910F91FF90EF90DF90CF90BF90AF90FD
:104A000008952F923F924F925F926F927F928F9272
:104A10009F92AF92BF92CF92DF92EF92FF920F934D
:104A20001F93CF93DF93EC010E94A3202C01CE01B2
:104A30000E94A3207C01CE010E94A3206C01088566
:104A40001985CE010E94A320FC01EE0FFF1FE00F8D
:104A5000F11F20803180CE010E94A3203C0181E221
:104A6000281631045CF44701880C991CCC0CDD1C21
:104A7000AA24BB24EE24FF2487012AC0440C551C21
:104A8000E885F985E40DF51D1182108234C0F90125
:104A9000EC0DFD1D60817181882777FD8095982F31
:104AA000280D391DF90120813181442737FD4095BA
:104AB000542F0E94CE35E60EF71E081F191F0894CA
:104AC000A11CB11C82E090E0880E991EC80ED91E70
:104AD00028853985A614B704D0F2F201EE0FFF1F26
:104AE000E20FF31F04C015950795F794E7942A94F5
:104AF000D2F7F182E082DF91CF911F910F91FF9069
:104B0000EF90DF90CF90BF90AF909F908F907F906D
:104B10006F905F904F903F902F9008958F929F924B
:104B2000AF92BF92CF92DF92EF92FF920F931F93BB
:104B3000CF93DF93EC010E94A320F82EC92ECE0163
:104B40000E94A3208C01CE010E94A3205C01CE0113
:104B50000E94A3204C01CE010E94A3209C0100973B
:104B600009F453C0EF2DFC2D88859985DF01AA0F2C
:104B7000BB1FA80FB91F4D915C916A01EE24D7FCB1
:104B8000E094FE2CE801CC0FDD1FC80FD91F59831C
:104B90004883D501AA0FBB1FA80FB91F11965C93BC
:104BA0004E933196EE0FFF1FE80FF91F01E010E062
:104BB0001CC041915191688179814617570714F4BF
:104BC000598348836D917C911197641775071CF484
:104BD00011965C934E93662757FD6095762FC40E11
:104BE000D51EE61EF71E0F5F1F4F0217130708F3AF
:104BF000E401CC0FDD1FC80FD91F40E050E0C70112
:104C0000B6010E94143639832883DF91CF911F911A
:104C10000F91FF90EF90DF90CF90BF90AF909F905B
:104C20008F900895CF92DF92EF92FF920F931F9390
:104C3000CF93DF93EC010E94A3206C01CE010E9470
:104C4000A3208C01CE010E94A3207C01CE010E94F2
:104C5000A3209C01009759F188859985E801CC0F24
:104C6000DD1FC80FD91FD701AA0FBB1FA80FB91F7F
:104C7000F601EE0FFF1FE80FF91F40E050E080E063
:104C800090E80FEF1FE761917191601771071CF4B5
:104C9000598348838B018617970724F411965C93F8
:104CA0004E93CB014F5F5F4F4217530760F3DF9185
:104CB000CF911F910F91FF90EF90DF90CF900895CB
:104CC0002F923F924F925F926F927F928F929F921C
:104CD000AF92BF92CF92DF92EF92FF920F931F930A
:104CE000DF93CF9300D000D0CDB7DEB79C012D83EA
:104CF0003E830E94A3207C012D813E81C9010E9438
:104D0000A3208C012D813E81C9010E94A3206C014A
:104D10002D813E81C9010E94A3205C012D813E812D
:104D2000C9010E94A3201C012701440C551C380115
:104D3000660C771C4601880C991CAA0CBB1CCC2461
:104D4000DD2484012D813E817901BC82AB8259C072
:104D5000F70180859185FC01E60DF71D40815181A9
:104D6000FC01E00FF11F60817181EB81FC81E80F94
:104D7000F91F208131814901AA2497FCA094BA2C03
:104D800022E030E0620E731E0E5F1F4FEB81FC814C
:104D90003296FC83EB8381149104A104B10409F1E0
:104DA0009C01240D351D3A832983882777FD809542
:104DB000982FFA019F01442737FD4095542F0E94F8
:104DC000CE35A50194010E941436E981FA81318320
:104DD00020830894C11CD11C22E030E0420E531EF7
:104DE00010C082E090E0F70197878687A701405FB7
:104DF0005F4FC70167E070E922E030E00E94D517FD
:104E000004C0C214D30408F4A3CF26960FB6F894B6
:104E1000DEBF0FBECDBFCF91DF911F910F91FF90ED
:104E2000EF90DF90CF90BF90AF909F908F907F904A
:104E30006F905F904F903F902F9008956F927F9268
:104E40008F929F92AF92BF92CF92DF92EF92FF929A
:104E50000F931F93CF93DF93EC010E94A3206C016B
:104E6000CE010E94A3208C01CE010E94A3207C01D0
:104E7000CE010E94A3203C01000F111FEE0CFF1C6D
:104E8000CC0CDD1C882499241EC0A884B984D501CB
:104E9000A00FB11FF501EE0DFF1D608171818D9195
:104EA0009C910E94BA20F501EC0DFD1D9183808339
:104EB0000894811C911C0E5F1F4F82E090E0E80E69
:104EC000F91EC80ED91E86149704F8F2DF91CF910F
:104ED0001F910F91FF90EF90DF90CF90BF90AF9018
:104EE0009F908F907F906F9008958F929F92AF9236
:104EF000BF92CF92DF92EF92FF920F931F93CF93C7
:104F0000DF937C010E94A320EC01C7010E94A32033
:104F10008C01C7010E94A3204C01000F111FCC0F70
:104F2000DD1FCC24DD2415C0F701A084B184F50178
:104F3000E00FF11F808191810E94A021F501EC0F0B
:104F4000FD1F918380830894C11CD11C0E5F1F4FED
:104F50002296C814D90440F3DF91CF911F910F918D
:104F6000FF90EF90DF90CF90BF90AF909F908F9089
:104F700008958F929F92AF92BF92CF92DF92EF925D
:104F8000FF920F931F93CF93DF937C010E94A32086
:104F9000EC01C7010E94A3208C01C7010E94A3203D
:104FA0004C01000F111FCC0FDD1FCC24DD2415C0D8
:104FB000F701A084B184F501E00FF11F8081918198
:104FC0000E941F22F501EC0FFD1F9183808308943E
:104FD000C11CD11C0E5F1F4F2296C814D90440F388
:104FE000DF91CF911F910F91FF90EF90DF90CF90C5
:104FF000BF90AF909F908F9008952F923F924F92C5
:105000005F926F927F928F929F92AF92BF92CF9258
:10501000DF92EF92FF920F931F93DF93CF93CDB761
:10502000DEB72A970FB6F894DEBF0FBECDBF7C0166
:105030000E94A3201C01C7010E94A3208C01C7016C
:105040000E94A320F7010084F185E02DFA87E9870B
:10505000FC01EE0FFF1F29853A85E20FF31FE08068
:10506000F180C7010E941F226C01C7010E94A0218C
:105070002601662457FC6094762CF801EE0FFF1F82
:1050800049855A85E40FF51F20813181A9016627E2
:1050900057FD6095762F49835A836B837C839C01EF
:1050A000442737FD4095542F2D833E834F835887E7
:1050B000F8013196EE0FFF1F49855A85E40FF51F61
:1050C00080809180AA2497FCA094BA2C6101CC0C1A
:1050D000DD1CC40ED51E69817A818B819C81A30160
:1050E00092010E94CE357B018C01C501B4012D8156
:1050F0003E814F8158850E94CE35E61AF70A080B8B
:10510000190BFFE015950795F794E794FA95D1F7F9
:10511000F601F182E08261010894C11CD11CCC0C23
:10512000DD1C29853A85C20ED31EC501B401A30139
:1051300092010E94CE357B018C0169817A818B813D
:105140009C812D813E814F8158850E94CE35E60E8F
:10515000F71E081F191F7FE015950795F794E79430
:105160007A95D1F7F601F182E0822A960FB6F8948B
:10517000DEBF0FBECDBFCF91DF911F910F91FF908A
:10518000EF90DF90CF90BF90AF909F908F907F90E7
:105190006F905F904F903F902F9008958F929F92C5
:1051A000AF92BF92CF92DF92EF92FF920F931F9335
:1051B000CF93DF937C010E94A320EC01C7010E94E2
:1051C000A3208C01C7010E94A3204C01000F111FD6
:1051D000CC0FDD1FCC24DD2415C0F701A084B184E1
:1051E000F501E00FF11F808191810E942422F501D9
:1051F000EC0FFD1F918380830894C11CD11C0E5FAE
:105200001F4F2296C814D90440F3DF91CF911F910C
:105210000F91FF90EF90DF90CF90BF90AF909F9055
:105220008F9008954F925F926F927F928F929F928C
:10523000AF92BF92CF92DF92EF92FF920F931F93A4
:10524000CF93DF938C010E94A3203C01C8010E94F0
:10525000A3205C01C8010E94A3207C01C8010E9418
:10526000A320C82EE6016E01D92EE601D8011896BA
:10527000ED91FC911997D701AA0FBB1FAE0FBF1F6D
:105280004D905C90D501AA0FBB1FAE0FBF1F20E051
:1052900030E00EC02F5F3F4FC217D30748F4D30151
:1052A000AA0FBB1FAE0FBF1F11961C921E928FC07C
:1052B0008D919D91009771F7C901D901AA0DBB1D70
:1052C000AA0FBB1FAE0FBF1F1EC02F5F3F4FC217DD
:1052D000D307C8F4009759F4D301AA0FBB1FAE0F30
:1052E000BF1F8FEF9FEF11969C938E9370C0019715
:1052F000660C771C8415950508F45AC0E60DF71D59
:105300009695879562C04D915D9141155105E9F2E1
:10531000CC24DD2488249924EE24FF24870105C0B1
:105320000F5F1F4F0C171D0790F4C801820F931FCA
:10533000BE010E94ED358A0D9B1D880F991F8E0FAF
:105340009F1FDC018D919C911197009749F7C8012F
:105350008E199F098816990634F46801CE0CDF1C5B
:10536000D594C7944C010C171D0740F01CC008943D
:10537000E11CF11CEC16FD0610F015C07801C70108
:10538000820F931FBE010E94ED358A0D9B1D880F71
:10539000991F8E0F9F1FDC018D919C911197009793
:1053A00009F0BCCFE4CF660C771C841495042CF470
:1053B000E60DF71D8FEF9FEF08C0E60DF71DC60144
:1053C000820F931FBE010E94ED3591838083DF9190
:1053D000CF911F910F91FF90EF90DF90CF90BF90F2
:1053E000AF909F908F907F906F905F904F900895B7
:1053F0009093491A8093481A08954091481A509101
:10540000491A85E592E6489F9001499F300D589FC3
:10541000300D1124275E394C3093491A2093481AD5
:10542000C9010895AF92BF92CF92DF92EF92FF929F
:105430000F931F93CF93DF938C010E94A320EC0165
:10544000C8010E94A3205C01CC0FDD1FCC24DD2409
:105450000EC0F801E084F184EC0EFD1E0E94FD29CF
:10546000F701918380830894C11CD11C2296CA1431
:10547000DB0478F3DF91CF911F910F91FF90EF90B4
:10548000DF90CF90BF90AF90089586B166B126B1FE
:1054900046B130E028703070A3E035952795AA9585
:1054A000E1F7220F331F70E0647070707595679597
:1054B00075956795260F371F220F331F50E04270F6
:1054C000507055954795240F351F220F8170820F1C
:1054D0000895F89414BC15BC10926E00109220012F
:1054E000109221018EEF9FE00E949F3890930D173C
:1054F00080930C179C0121583C402330310518F44F
:1055000010923C180DC02CE08038920711F481E015
:1055100005C02CE08438920718F082E080933C1894
:105520000E94CA080E947B0F0E9448050E94350411
:105530000E944B320E941B2F0E9427090E947E125C
:105540000E94272B789408951F920F920FB60F9206
:1055500011240F900FBE0F901F901895CF93DF93DB
:105560009EE1899FE0011124809168008D7F8093E6
:10557000680080916C008F7780936C00D99A1092AC
:105580007A0080917A00806180937A001092900076
:10559000109291001092710088B3876088BB1092BE
:1055A000A0001092A1001092720089B3876089BB9D
:1055B00010928000109281000E9451090E9457327F
:1055C0000E94E5160E94CA0883B78F6083BF81E0FE
:1055D000809370008091B0008D7F8093B0008091A7
:1055E000B10087608093B10002C088952197209711
:1055F000E1F713BE8091B100887F8093B1001092D3
:1056000070008091B00082608093B0008FEF809333
:10561000DA038093DB038093DC031092F51610927B
:10562000F4161092F7161092F6160E94692ADF916E
:10563000CF91089560913518709136188091371880
:1056400090913818089581E08093CE160895CF93F5
:10565000DF93C8E6D0E01882ACE6B0E01C92E0EB45
:10566000F0E010821092B100109270008881826088
:1056700088838C9180688C93808182608083DF91A5
:10568000CF9108951F920F920FB60F9211248F930E
:105690008091DF03882321F18091030186FD20C0E2
:1056A000809168008D7F8093680080916C008F7777
:1056B00080936C0081E08093E0038DE08093B300E1
:1056C0008091B10086608093B1008091700082600B
:1056D0008093700010924C1A10924D1A10924E1A2C
:1056E0008F910F900FBE0F901F9018951F920F92E1
:1056F0000FB60F9211242F933F934F935F938F9385
:105700009F938091B100887F8093B1008091E003E6
:105710008823C9F08091030186FF11C08091680041
:1057200082608093680080916C00806880936C0038
:105730008FEF9FEF9093DE0C8093DD0CCCC0109226
:10574000E00383E33FC08091DD0C9091DE0C2FEFEE
:105750008F3F920739F52091030126FF0BC020915E
:10576000680022602093680020916C0020682093DC
:105770006C00B1C08CE18093B3008091B100866071
:105780008093B100809170008260809370001092CD
:105790004C1A10924D1A10924E1A1092DE0C109262
:1057A000DD0C99C081309105D1F48091030190E026
:1057B0008074907026E0959587952A95E1F78093FF
:1057C0004E1A86E38093B3008091B1008660809387
:1057D000B100809170008260809370007CC09C0159
:1057E000225030402530310530F526E32093B300B8
:1057F0002091B10026602093B100209170002260BA
:10580000209370002091030130E02074307056E046
:10581000369527955A95E1F746E050E0481B590B1D
:1058200002C0220F331F4A95E2F780914D1A820F72
:1058300080934D1A50C09C012750304026303105CE
:1058400030F526E32093B3002091B1002660209329
:10585000B10020917000226020937000209103011C
:1058600030E02074307046E0369527954A95E1F790
:105870004CE050E0481B590B02C0220F331F4A95E1
:10588000E2F780914C1A820F80934C1A24C08D301D
:10589000910509F5109270008091680082608093F4
:1058A000680080916C00806880936C008FEF9FEFA0
:1058B0009093DE0C8093DD0C80914E1A8093DC0C6B
:1058C00080914D1A80934A1A80914C1A80934B1AFA
:1058D00081E0809316188091DD0C9091DE0C2FEF03
:1058E0008F3F920729F001969093DE0C8093DD0C98
:1058F0009F918F915F914F913F912F910F900FBE8C
:105900000F901F9018958091DC0C089580914A1A91
:10591000089580914B1A08958091DF03882309F43C
:10592000A7C180911618882309F4A2C1E0914B1AEF
:10593000E093151810921618F0E0E533F10508F021
:105940006CC1EC57FF4FEE0FFF1F0590F491E02D57
:1059500019941092F9161092F8161092FB161092E4
:10596000FA165BC12091F8163091F9168091FA165B
:105970009091FB16821793072CF43093FB1620931B
:10598000FA1604C09093F9168093F8162091F81631
:105990003091F916225E3F4F3093F9162093F81696
:1059A0008091FA169091FB164E969093FB16809379
:1059B000FA1642E0213034070CF461C020E032E0F6
:1059C0005AC08091F8169091F9162091F6163091F0
:1059D000F716821793072CF49093FB168093FA1610
:1059E00008C08091FA169091FB169093F916809357
:1059F000F8162091F8163091F9162E513040309358
:105A0000F9162093F8168091FA169091FB164E978E
:105A10009093FB168093FA164EEF2030340734F43F
:105A200020E03EEF3093F9162093F8162EEF8030E9
:105A300092070CF0F2C080E09EEF9093FB168093EB
:105A4000FA16EBC02091F8163091F9162E5130401D
:105A50003093F9162093F8168091FA169091FB1660
:105A60004E969093FB168093FA164EEF2030340733
:105A700034F420E03EEF3093F9162093F81622E03C
:105A8000813092070CF4C9C029C02091F8163091DA
:105A9000F916225E3F4F3093F9162093F816809145
:105AA000FA169091FB164E979093FB168093FA1678
:105AB00042E0213034070CF4B9CF20E032E0B2CF1D
:105AC0008091FA169091FB164E969093FB16809358
:105AD000FA1642E0813094070CF49FC080E092E017
