S0140000656C697361332D61736562612E73726563A6
S11300000C94C9010C94EA010C94EA010C94EA01E1
S11300100C94EA010C94EA010C94EA010C94EA01B0
S11300200C94EA010C94EA010C94A1440C94EA01A6
S11300300C94EA010C94D5440C94EA010C943644D3
S11300400C94EA010C94EA010C94EA010C94EA0180
S11300500C94EA010C94EA010C94EA010C94EA0170
S11300600C94EA010C9492310C94EA010C94EA0188
S11300700C94EA010C943C360C94EA010C94EA01C9
S11300800C94E0300C94F6300C94EA010C94553046
S11300900C94EA010C94EA010C94EA010C94EA0130
S11300A00C94EA010C94EA010C9429300C943F302E
S11300B00C94EA010C94942F0C94EA010C94EA0138
S11300C00C94EA010C94EA010C94EA010C94EA0100
S11300D00C94EA010C94EA010C94EA010C94EA01F0
S11300E00C94EA01F31BFB1B031C131C0B1C171CB5
S11300F0EB1BE31BD839CC39C039B439A8399D3945
S11301009139343A213A0E3AE739433AE3394F4ABE
S1130110564A5D4A614A654A6D4A8B4A934A974AF0
S11301209B4A434A9F4AA64AAD4AB44ABB4A374A05
S11301304C4AE94BF44B214C3F4C644C8A4CBA4C2E
S11301407F4BF54C294D3E4D7E4D9D4DB24BCE4BD4
S113015050502C508F507450B850EE4FB84F8A4FB7
S1130160614F4C4F0D4FE44ECC4EAC4E5950105392
S11301702D53F054DF54CC54C254AA547E54945397
S11301809053825363535F535B535753F152084A5E
S1130190D73B3BCE016E84BCBFFDC12F3D6C743197
S11301A09ABD56833DDA3D00C77F11BED9E4BB4CEE
S11301B03E916BAAAABE000000803F05A84CCDB2B8
S11301C0D44EB93836A9020C50B9918688083CA699
S11301D0AAAA2ABE000000803F000C94CE4B0C94C7
S11301E082530C94E94B0C9494530C94654A0C94EC
S11301F002020C949F4A0C9457530C944F4A0C944B
S11302008A4F0C94934A0C945B530C942C160C94C4
S1130210B24B0C9463530C94F54C0C943D0A0C941F
S1130220F44B0C941F0F0C945F530C94B20F0C946A
S1130230EA0C0C94BF100C9450500C94EB1B0C94CF
S1130240F0540C94AD4A0C94B4390C94131C0C94D3
S1130250040E0C94F1520C94C00E0C94DE130C9406
S1130260E44E0C94990C0C942B120C947E4D0C942B
S11302708B4A0C94BB4A0C94214C0C94434A0C9426
S1130280564A0C943E4D0C94D8390C945D4A0C9407
S11302900B1C0C94614A0C94C0390C94E3390C94F3
S11302A090530C94DF540C948F0A0C94E31B0C941D
S11302B0C6090C946B0D0C94C2540C94CC4E0C9443
S11302C0974A0C94644C0C94A8390C94614F0C9488
S11302D010530C94CC390C948F500C94374A0C94D2
S11302E0EE4F0C940D4F0C94AC4E0C94213A0C949C
S11302F0F31B0C942D0B0C94B8500C949D4D0C9442
S11303007F4B0C943F4C0C94FB1B0C949D390C9428
S113031074500C944C4F0C9491390C94B84F0C9429
S1130320AA540C942C500C94CC540C94840B0C9420
S1130330E7390C94171C0C9429020C9459500C9412
S11303407E540C94343A0C94A64A0C942D530C9479
S1130350294D0C94433A0C940B130C9477020C948F
S1130360010A0C946D4A0C94BA4C0C9491150C949B
S11303709B4A0C94B44A0C948A4C0C94480C0C94EC
S11303800E3A0C94031C0C9450020C944C4A0C949A
S1130390DE0A11241FBECFEFD1E2DEBFCDBF00E0E5
S11303A00CBF1FE0A0E0B2E0E4EBF4EB00E00BBF15
S11303B002C007900D92A036B107D9F721E2A0E65A
S11303C0BFE001C01D92A53BB207E1F70E94E31A0A
S11303D00C94585A0C94000040E950E06CE67FE01D
S11303E08AEB90E20E94155A65E57AEA8AE69FE074
S11303F00C94375A40E950E06CE67FE08AEB90E2D7
S11304000C94F759DC0118968D919C9119971C96C0
S1130410ED91FC911D9752962D913C915397A90112
S11304204150510953965C934E935297220F331FB8
S1130430E20FF31F0190F081E02DEE0FFF1FE80F94
S1130440F91F80819181892B11F40C94BC020C94C6
S11304508102DC0118968D919C9119971C96ED915F
S1130460FC911D9752962D913C915397A9014150AF
S1130470510953965C934E935297220F331FE20F08
S1130480F31F0190F081E02DEE0FFF1FE80FF91F1D
S113049080819181892B11F40C94C3330C94BF3364
S11304A0DC0118968D919C9119971C96ED91FC9105
S11304B01D9752962D913C915397A9014150510992
S11304C053965C934E935297220F331FE20FF31F00
S11304D00190F081E02DEE0FFF1FE80FF91F8081DE
S11304E09181892B11F40C94CA330C94C6330C9467
S11304F04D4481E08093EE178093EB178093ED17C2
S1130500089583E09EE1909396208093952083E460
S11305109FE19093842080938320E2E5F1E2F093BD
S11305207621E093752180EA91E29093E11D809316
S1130530E01D85E890E29093021E8093011E8AEAF2
S113054090E29093DF1D8093DE1D80E1DF011D9218
S11305508A95E9F740E150E06FEF70E085E890E2BA
S11305600E94F0591092EC1781E08093EE1780936B
S1130570EB178093ED1708951092EE171092EC1775
S113058008956F927F928F929F92AF92BF92CF9273
S1130590DF92EF92FF920F931F93CF93DF9310910B
S11305A0EC17113009F4B7C0123079F0DF91CF9114
S11305B01F910F91FF90EF90DF90CF90BF90AF907D
S11305C09F908F907F906F9008958091EB17823069
S11305D009F46CC1853051F70E9440442091E11721
S11305E03091E2174091E3175091E417DC01CB01FD
S11305F0821B930BA40BB50B8093E5179093E6171E
S1130600A093E717B093E8170E9440446093E11762
S11306107093E2178093E3179093E4171093E81D07
S113062083E08093E91D8091BE17282F30E081700C
S11306308093F11D8111B8C380E021FB662460F82A
S1130640712C6092F01D91E0980F6A94672809F468
S1130650AFC322FB882480F8912C8092EF1D91E097
S1130660980F8A94892809F4A1C323FBAA24A0F82B
S1130670B12CA092EE1D91E0980FAA94AB2809F436
S11306809FC324FBCC24C0F8D12CC092ED1D91E073
S1130690980FCA94CD2809F491C325FBEE24E0F801
S11306A0F12CE092EC1D91E0980FEA94EF2809F404
S11306B083C326FB442740F9C42F90E0D92F4093ED
S11306C0EB1D91E0980F219709F474C3220F232F97
S11306D0221F330B2093EA1D91E0980F3093EA1701
S11306E02093E9172130310509F45CC3837094E049
S11306F0981B892F9093B817969591709093F21D3B
S113070081708093F31D1092B7171092B61782E090
S11307108093EB174BCFC091EB17C33009F4FCC0A7
S113072008F0A5C0C13009F4C9C2C23009F03ECFF7
S1130730E091E01DF091E11DA091DE1DB091DF1D5F
S11307408091C017208131814D915C911197241BB8
S1130750350B203531050CF08F5F228133811296E1
S11307604D915C911397241B350B203531050CF00A
S11307708F5F2481358114964D915C911597241BCC
S1130780350B203531050CF08F5F268137811696A5
S11307904D915C911797241B350B203531050CF0D6
S11307A08F5F2085318518964D915C911997241B94
S11307B0350B203531050CF08F5F228533851A9671
S11307C04D915C911B97241B350B203531050CF0A2
S11307D08F5F248535851C964D915C911D97241B54
S11307E0350B203531050CF08F5F268537851E9635
S11307F04D915C911F97241B350B203531050CF06E
S11308008F5F8093C0178111E7C21092C7171092AF
S1130810531A85E08093BE191092BD191092EC17FB
S113082081E08093EB178091C1179091C2178730B4
S113083091050CF0C9C401969093C2178093C11717
S11308408091C3179091C417803591050CF00EC4A4
S11308501092C7171092531A85E08093BE19109214
S1130860BD191092EC1781E08093EB179FCEC63030
S113087009F489C1C73009F099CE9091FD1D80918A
S1130880DE17890F9091FC1D990F890F8370809357
S1130890CE178111DFCF8091CD178093CA17809135
S11308A0C11780931D031093C917D4CF9091B71724
S11308B0E92FF0E0E851F24E8081833009F482C2DE
S11308C0823009F1813009F49EC42EE130E0309386
S11308D0B5172093B41788E08093B317911109C01A
S11308E08091B01781113EC38AEA82B981E0809376
S11308F0B6171092B1171092B21783E08093EB17DA
S11309008093BF1753CE28E730E03093B517209378
S1130910B4178093B317E2CF1092DA171092DB1753
S11309201092DC171092DD1780E094E09093D717B3
S11309308093D6171092D9171092D8171092D51702
S11309401093D417A12CB090C5179090C617E091BE
S1130950C117F091C217EE0FFF1F80918320909171
S11309608420E80FF91FC7E7D1E2DE0177247394EE
S113097040E050E0BA010AC022E0721609F46DC0EA
S1130980709621E2AF39B20709F4AAC0808191813F
S11309908D939D936C01092E000CEE08FF084C0DFD
S11309A05D1D6E1D7F1D01E07012E6CF88248394C7
S11309B08A0CE090D617F090D7178E159F05ACF4EB
S11309C09093D7178093D6172091D8173091D917C1
S11309D0281739076CF59093D9178093D81710927C
S11309E0EA171092E917A82CCBCF2091D817309191
S11309F0D91728173907ECF49093D9178093D8178F
S1130A009C012E193F093093EA172093E9172035EA
S1130A1031054CF3912C9093D7178093D61790936C
S1130A20D9178093D817B12C12E032E0732EA8CFD7
S1130A307C016901CE18DF08D092EA17C092E91749
S1130A4000E5C016D1047CF28217930719F38E15C2
S1130A509F0509F799249394DECFB394E090D617B9
S1130A60F090D7178E159F0584F49093D717809331
S1130A70D6172091D8173091D917281739071CF5A4
S1130A809093D9178093D8177BCF2091D8173091A2
S1130A90D91728173907C4F49093D9178093D81716
S1130AA09C012E193F09203531050CF469CF01E072
S1130AB0901631F08E159F0509F062CF911060CF2A
S1130AC010E0712C5DCF7C016901CE18DF0800E5D0
S1130AD0C016D1040CF454CF8217930759F7E7CF0B
S1130AE09092C6171093D417A092D517B092C51739
S1130AF04093DA175093DB176093DC177093DD177C
S1130B00CB01BA0124E130E040E050E00E94FF55FF
S1130B10DA01C901A9019093D3178093D217888170
S1130B209981841B950B8993999381E2CF39D807D6
S1130B30B1F78091772190917821181619060CF05D
S1130B4083C381E08093D11721E0582FE9E7F1E2D4
S1130B5040E030E007C027FD11C091E2EF39F9070A
S1130B6009F4D3C08191919118161906A4F3213088
S1130B70A1F73F5F432F5FEF2FEFEFCF3F5F432F8F
S1130B8051E021E0EACF1092DA171092DB171092AD
S1130B90DC171092DD1780E094E09093D7178093D0
S1130BA0D6171092D9171092D817E091C117F09167
S1130BB0C217EE0FFF1F8091832090918420E80FCD
S1130BC0F91FC7E7D1E2DE0120E030E000E014E0E5
S1130BD040E050E0BA01808191818D939D936C0136
S1130BE0092E000CEE08FF084C0D5D1D6E1D7F1DC7
S1130BF0801791072CF49093D7178093D6178C0104
S1130C00281739072CF49093D9178093D8179C018F
S1130C10709681E2AF39B807F1F64093DA17509332
S1130C20DB176093DC177093DD17201B310B203525
S1130C3031050CF40FCECB01BA0124E130E040E0E1
S1130C4050E00E94FF55DA01C901A9019093D3171E
S1130C508093D21788819981841B950B89939993EA
S1130C6091E2CF39D907B1F780917721909178211A
S1130C70181619060CF01BC381E08093D11721E0EC
S1130C80582FE9E7F1E240E030E007C02F3F89F058
S1130C90C1E2EF39FC0709F466C0819191911816FD
S1130CA01906A4F32130A1F73F5F432F5FEF2FEF25
S1130CB0EFCF3F5F432F51E021E0EACF8091C71788
S1130CC0811174CC9091EE178091ED17981709F467
S1130CD06DCC0E9440440091B9171091BA1720912D
S1130CE0BB173091BC17DC01CB01801B910BA20B0D
S1130CF0B30B84389740A105B10508F457CC82E0C2
S1130D008093EE17C093EB1751CC5093D1174093B7
S1130D10D0178091C617813009F47FC28091C7171C
S1130D20813009F4BDC2323009F4C7C2313009F050
S1130D3091CD8091C5178B3008F0D3C284E18093A4
S1130D40D5171092C6171092C7171092CC1710928D
S1130D50CB171092CF171092DE171092CD1784E0A4
S1130D608093EB1723CC5093D1174093D017363090
S1130D7008F42FC28091CF17E82FF0E0EC50F24E28
S1130D801082883028F49091CD17990F9093CD1745
S1130D908F5F8093CF178A3009F493C285E08093E4
S1130DA0EB1704CC892FA2CC81E047CC892F5DCCF2
S1130DB0892F4FCC892F8ACC892F7BCC892F6DCC5E
S1130DC0892F5FCC20EF30E03093B5172093B41710
S1130DD081E08093B31782CD8091C71781113AC205
S1130DE02091C1173091C217273031050CF042C150
S1130DF02F5F3F4F3093C2172093C117C901880F4B
S1130E00991FAF01480F591FBD01680F791FEA01EF
S1130E1088819981EB0148815981841B950B803528
S1130E2091050CF01FC12730310509F033C1109230
S1130E30C2171092C117808191812D913C91119715
S1130E40821B930B803591050CF00CC121E030E03E
S1130E503093C2172093C1178281938112964D91CA
S1130E605C911397841B950B803591050CF0FAC0A7
S1130E702F5F3F4F3093C2172093C117C901880FCA
S1130E80991FAF01480F591FBD01680F791FEA016F
S1130E9088819981EB0148815981841B950B8035A8
S1130EA091050CF0DFC02730310509F032C11092F2
S1130EB0C2171092C117808191812D913C91119795
S1130EC0821B930B803591050CF0CCC021E030E0FF
S1130ED03093C2172093C1178281938112964D914A
S1130EE05C911397841B950B803591050CF0BAC067
S1130EF02F5F3F4F3093C2172093C117C901880F4A
S1130F00991FAF01480F591FBD01680F791FEA01EE
S1130F1088819981EB0148815981841B950B803527
S1130F2091050CF09FC02730310509F032C11092B1
S1130F30C2171092C117808191812D913C91821B1F
S1130F40930B803591050CF08DC020E030E02F5FCD
S1130F503F4F3093C2172093C1178091C3179091CC
S1130F60C41772CC85E582B9C1CC2F5F3F4F309353
S1130F70C2172093C117C901880F991FAF01480FE9
S1130F80591FBD01680F791FEA0188819981EB011E
S1130F9048815981841B950B803591050CF062C002
S1130FA02730310509F064CF1092C2171092C1178F
S1130FB0808191812D913C911197821B930B8035F7
S1130FC091050CF04FC021E030E03093C21720931C
S1130FD0C1178281938112964D915C911397841B62
S1130FE0950B80359105F4F52F5F3F4F3093C21771
S1130FF02093C117C901880F991FAF01480F591FCA
S1131000BD01680F791FEA0188819981EB0148814C
S11310105981841B950B8035910524F527303105C2
S113102009F066CF1092C2171092C1178081918186
S11310302D913C911197821B930B8035910594F46B
S113104021E030E03093C2172093C117828193814D
S113105012964D915C911397841B950B80359105E5
S11310600CF475CF9093C4178093C31783E08093D7
S1131070EB179CCA1092C2171092C11780819181FC
S11310802D913C911197821B930B8035910554F758
S113109020E030E02F5F3F4F3093C2172093C117F9
S11310A0C901880F991FAF01480F591FBD01680F6F
S11310B0791FEA0188819981EB0148815981841B58
S11310C0950B8035910574F62730310509F04DCF25
S11310D01092C2171092C117808191812D913C9179
S11310E01197821B930B803591050CF0BBCF21E047
S11310F030E03093C2172093C117828193811296F6
S11311004D915C911397841B950B803591050CF0E0
S1131110A9CF2F5F3F4F3093C2172093C117C90146
S1131120880F991FAF01480F591FBD01680F791F20
S1131130EA0188819981EB0148815981841B950BCF
S1131140803591050CF08ECF2730310509F04CCF56
S11311501092C2171092C117808191812D913C91F8
S11311601197821B930B803591050CF07BCF21E006
S113117030E03093C2172093C11782819381129675
S11311804D915C911397841B950B803591050CF060
S113119069CF2F5F3F4F3093C2172093C117C90106
S11311A0880F991FE80FF91FA80FB91F808191813B
S11311B04D915C91841B950B803591050CF052CFB9
S11311C02730310509F0C3CE1092C2171092C1170F
S11311D0C4CE333008F43ECB8091CF17E82FF0E033
S11311E0EC50F24E91E09083883008F0D1CD90918C
S11311F0DE179F5F9093DE179091CD17990F9F5F35
S11312009093CD17C5CD2CE330E03093B5172093E0
S1131210B41784E08093B31761CB9091C7179130D2
S113122009F46BC0323009F48FC0313009F452C074
S11312301092531A95E09093BE191092BD19109212
S1131240EC178093EB17B2C98FEF8093D1172FEF70
S1131250582F7CCC4091C1175091C2179A01220F8C
S1131260331FE20FF31FA20FB31F208131816D9151
S11312707C91261B370B3093C4172093C31720355A
S113128031050CF0F3CE813009F0E2CA4730510544
S1131290E4F44F5F5F4F5093C2174093C117D8CA0D
S11312A0323059F03130E1F11092C717C1CF8FEFCE
S11312B08093D1172FEF582FE4CC8091D517865FF8
S11312C03ECD87E08093EB1771C91092C21710923C
S11312D0C117BECA3093C7178091C5178B3008F069
S11312E030CD1092531A85E08093BE191092BD1927
S11312F01092EC173093EB1759C9323089F0313022
S113130009F41FCD1092C7171092531A85E08093E9
S1131310BE191092BD191092EC179093EB1746C9A1
S11313201092D5171092C6171092C7171092CC17A7
S11313301092CB171092CF171092DE171092CD1780
S113134085E08093EB1732C99091C517943008F467
S11313506FCF8091D5178C5EF2CC8093BE1781E05D
S11313608093BD1782E08093ED17089581E09091FA
S1131370BD17913009F0089580E008958091C91750
S113138008951092C9178091CA170895CF93DF93D7
S1131390EC01EC85FD854A895B89CA0101979B8B29
S11313A08A8B9A01220F331FE20FF31F20813181B0
S11313B001979B8B8A8BDF0112970D90BC91A02D16
S11313C0435051095B8B4A8B3497408151814115BD
S11313D05105A1F0E885F985AA0FBB1FAE0FBF1F09
S11313E0220F331FE20FF31F80E090E02D913D9117
S11313F021933193019648175907C1F7DF91CF9193
S11314000895CF93DF93EC01EC85FD854A895B89D0
S1131410CA0101979B8B8A8B9A01220F331FE20F1B
S1131420F31F2081318101979B8B8A8BDF011297F7
S11314300D90BC91A02D435051095B8B4A8B34977E
S11314404081518141155105A9F0E885F985AA0F1C
S1131450BB1FAE0FBF1F220F331FE20FF31F80E02D
S113146090E02D913C911197219331930196481767
S11314705907B9F7DF91CF9108950F931F93CF9335
S1131480DF93EC01EC85FD854A895B89CA010197EC
S11314909B8B8A8BCA01880F991FE80FF91F208143
S11314A03181CA0102979B8B8A8BDF0112970D91C0
S11314B01C9101979B8B8A8BCF010497DC018D9142
S11314C09C91445051095B8B4A8B369740815181E2
S11314D0E885F985EC01CC0FDD1FCE0FDF1F688195
S11314E0798141155105B1F0D801AA0FBB1FAE0F88
S11314F0BF1F220F331FE20FF31F20E030E08D9156
S11315009D91860F971F819391932F5F3F4F4217B1
S11315105307A9F7DF91CF911F910F910895CF93AE
S1131520DF93EC01EC85FD854A895B89CA0101974B
S11315309B8B8A8BCA01880F991FE80FF91F2081A2
S11315403181CA0102979B8B8A8BDF0112978D919F
S11315509C911197BA01635071097B8B6A8B129726
S11315600D90BC91A02D445051095B8B4A8B36974A
S11315704081518141155105F1F0E885F985EC016F
S1131580CC0FDD1FCE0FDF1FAA0FBB1FAE0FBF1F77
S1131590220F331FE20FF31F20E030E069917991AD
S11315A08D919D91860F971F819391932F5F3F4F4C
S11315B04217530799F7DF91CF910895CF93DF93A3
S11315C0EC01EC85FD854A895B89CA0101979B8BF7
S11315D08A8BCA01880F991FE80FF91F2081318176
S11315E0CA0102979B8B8A8BDF0112978D919C9184
S11315F01197BA01635071097B8B6A8B12970D9016
S1131600BC91A02D445051095B8B4A8B3697408185
S1131610518141155105F1F0E885F985EC01CC0FB4
S1131620DD1FCE0FDF1FAA0FBB1FAE0FBF1F220F80
S1131630331FE20FF31F20E030E0899199916D91FF
S11316407D91861B970B819391932F5F3F4F421798
S1131650530799F7DF91CF9108950F931F93CF9379
S1131660DF93EC01EC85FD854A895B89CA0101970A
S11316709B8B8A8BCA01880F991FE80FF91F208161
S11316803181CA0102979B8B8A8BDF0112978D915E
S11316909C911197BA01635071097B8B6A8B1297E5
S11316A00D90BC91A02D445051095B8B4A8B369709
S11316B0608171816115710511F1E885F985EC018D
S11316C0CC0FDD1FCE0FDF1FAA0FBB1FAE0FBF1F36
S11316D0220F331FE20FF31F80E090E0099119916C
S11316E04D915D91049F9001059F300D149F300D25
S11316F011242193319301966817790779F7DF91C3
S1131700CF911F910F9108954F925F928F929F9264
S1131710AF92BF92CF92DF92EF92FF920F931F93FB
S1131720CF93DF934C01DC011C96ED91FC911D9746
S113173052968D919C9153979C0121503109539657
S11317403C932E9352979C01220F331FE20FF31FF9
S1131750E080F1809C012250310953963C932E93F2
S11317605297DF0112970D911C9121503109D40138
S113177053963C932E935297DF011497CD90DC90AF
S11317800497D40153969C938E9352973697A080D6
S1131790B180A114B10409F44DC0F401A085B18550
S11317A0000F111FFD01E00FF11F40805180B201B5
S11317B0550C880B990BCC0CDD1CFD01EC0DFD1DAB
S11317C020813181032E000C440B550B211531056A
S11317D041055105F1F1EE0CFF1CEA0EFB1E0E5FF4
S11317E01F4F0A0F1B1FF2E0CF0ED11CCA0EDB1EC7
S11317F0C0E0D0E015C0F801419051908F01B201D2
S1131800550C880B990BD6012D913D916D01032E3A
S1131810000C440B550B2115310541055105C9F048
S11318200E94FF55F701219331937F012196AC1655
S1131830BD0609F7DF91CF911F910F91FF90EF90B3
S1131840DF90CF90BF90AF909F908F905F904F901C
S1131850089582E090E0D4011F969C938E931E9786
S1131860A401405F5F4F22E030E067E070E9C4010B
S1131870DF91CF911F910F91FF90EF90DF90CF9068
S1131880BF90AF909F908F905F904F900C94AC4618
S1131890CF93DF93EC01EC85FD854A895B89CA010E
S11318A001979B8B8A8BCA01880F991FE80FF91F38
S11318B020813181CA0102979B8B8A8BDF011297A9
S11318C08D919C911197BA01635071097B8B6A8B3E
S11318D012970D90BC91A02D445051095B8B4A8BFB
S11318E03697608171816115710501F1E885F9858B
S11318F0EC01CC0FDD1FCE0FDF1FAA0FBB1FAE0FF5
S1131900BF1F220F331FE20FF31F20E030E0499185
S113191059918D919D91481759070CF4CA018193EF
S113192091932F5F3F4F6217730789F7DF91CF9130
S11319300895CF93DF93EC01EC85FD854A895B899B
S1131940CA0101979B8B8A8BCA01880F991FE80FE4
S1131950F91F20813181CA0102979B8B8A8BDF0199
S113196012978D919C911197BA01635071097B8BE9
S11319706A8B12970D90BC91A02D445051095B8B3A
S11319804A8B3697608171816115710501F1E88593
S1131990F985EC01CC0FDD1FCE0FDF1FAA0FBB1F93
S11319A0AE0FBF1F220F331FE20FF31F20E030E002
S11319B0499159918D919D91841795070CF4CA0111
S11319C0819391932F5F3F4F6217730789F7DF91DC
S11319D0CF910895CF92DF92EF92FF920F931F93CE
S11319E0CF93DF93DC011C96ED91FC911D975296E9
S11319F04D915C915397CA01019753969C938E9392
S1131A005297CA01880F991FE80FF91F208131816D
S1131A10CA01029753969C938E935297EF01229793
S1131A2008811981019753969C938E93529722971C
S1131A3068817981019753969C938E935297CF0135
S1131A400697EC01888199814550510953965C931E
S1131A504E9352973897E080F180E114F10491F1AC
S1131A601896ED91FC911997000F111F0E0F1F1F6F
S1131A70EB01CC0FDD1FCE0FDF1FDC01AA0FBB1F54
S1131A80AE0FBF1F220F331F6F01C20ED31E40E0E3
S1131A9050E0F801219131918F018D919D916991CF
S1131AA07991621773070CF4B901821793070CF04C
S1131AB0CB01F601819391936F014F5F5F4FE41661
S1131AC0F50639F7DF91CF911F910F91FF90EF90B9
S1131AD0DF90CF9008956F927F928F929F92AF92F2
S1131AE0BF92CF92DF92EF92FF920F931F93CF9307
S1131AF0DF93EC01AC85BD852A893B89A90141505E
S1131B0051095B8B4A8BA901440F551FA40FB51FC4
S1131B106D907C901197A901425051095B8B4A8BBF
S1131B20FD01329780819181415051095B8B4A8B31
S1131B30329760817181A884B984415051095B8BCB
S1131B404A8BAD0146505109FA0140815181440F3D
S1131B50551F4A0D5B1DFA01808091802550310983
S1131B603B8B2A8B18970D911C91F1E28F169104EF
S1131B700CF03FC00115110509F443C0EC01CC0F72
S1131B80DD1FCA0DDB1DFB01EE0FFF1FEA0DFB1D60
S1131B9040E050E0C12CD12C760129913991A191DA
S1131BA0B1910E942656C60ED71EE81EF91E4F5F3D
S1131BB05F4F0417150789F704C0F594E794D79489
S1131BC0C7948A94D2F7660C771CF501E60DF71DCD
S1131BD0D182C082DF91CF911F910F91FF90EF903E
S1131BE0DF90CF90BF90AF909F908F907F906F9039
S1131BF00895660C771CF501E60DF71D118210821D
S1131C00E9CFC12CD12CDFCF4F925F926F927F929C
S1131C108F929F92AF92BF92CF92DF92EF92FF92F8
S1131C200F931F93CF93DF93DC011C96ED91FC91EE
S1131C301D9752962D913C915397A90141505109FA
S1131C4053965C934E935297A901440F551FE40F8A
S1131C50F51F40815181B9016250710953967C93FB
S1131C606E935297DF0112970D911C916150710987
S1131C70EC017B8B6A8BEF0124970990D881C02DEE
S1131C8061507109DC0153967C936E935297BF01A6
S1131C9066507109DB01ED90FC9025503109DC019F
S1131CA053963C932E935297389720813181211576
S1131CB0310509F454C01896CD90DC901997FA01B7
S1131CC0EE0FFF1FC6018E0F9F1FDC018D919C91AB
S1131CD04C01092E000CAA08BB08D801AA0FBB1F8F
S1131CE0AC0DBD1D11969C938E93CC0FDD1FCC0DB6
S1131CF0DD1D998388832130310521F13296EC0D65
S1131D00FD1D41E050E0819191910D911C9111973D
S1131D10801791071CF411969C938E930881198166
S1131D200817190714F4998388832C01990F6608FE
S1131D307708840C951CA61CB71C4F5F5F4F2417B3
S1131D40350709F7EE0CFF1CE601CE0DDF1D40E060
S1131D5050E0C501B4010E94FF5539832883DF9107
S1131D60CF911F910F91FF90EF90DF90CF90BF9094
S1131D70AF909F908F907F906F905F904F90089559
S1131D80EF92FF920F931F93CF93DF93EC01EC85B7
S1131D90FD854A895B89CA0101979B8B8A8BCA019D
S1131DA0880F991FE80FF91F20813181CA0102971A
S1131DB09B8B8A8BDF0112970D911C9111970197D0
S1131DC09B8B8A8B12978D919C91445051095B8B0C
S1131DD04A8B3697A081B181109751F1E885F98536
S1131DE0000F111F0E0F1F1FEC01CC0FDD1F7E0112
S1131DF0EE0EFF1E220F331FE20FF31F80E090E070
S1131E0060E070E84FEF5FE72191319124173507C7
S1131E1024F4E80199838883A9016217730724F4E1
S1131E20E70199838883B9010196A817B90761F777
S1131E30DF91CF911F910F91FF90EF9008956F92D2
S1131E407F928F929F92AF92BF92CF92DF92EF9246
S1131E50FF920F931F93CF93DF93DC011C96ED91B8
S1131E60FC911D9752968D919C9153979C01215002
S1131E70310953963C932E9352979C01220F331FA2
S1131E80E20FF31FA080B180029753969C938E9328
S1131E905297329780809180C501880F991F1896B8
S1131EA0AD90BC901997A80EB91EE401CC0FDD1FAC
S1131EB03E016A0C7B1C840120E030E075E0C72EF3
S1131EC0D12CE12CF12C02301105C0F1C801A0E0A5
S1131ED0B0E0BC01CD01660F771F881F991F660F04
S1131EE0771F881F991FA70196010E94DD5589015C
S1131EF008151905A0F5D501F801EE0FFF1FEA0D2D
S1131F00FB1D20E030E08D919D9140815181BC0109
S1131F10641B750B1616170654F49D0122503109E3
S1131F20E901598348839183808321E030E032962C
S1131F30E615F70541F70230110540F6232BC1F6EB
S1131F40DF91CF911F910F91FF90EF90DF90CF9091
S1131F50BF90AF909F908F907F906F90089520E0F6
S1131F6030E0B1CF2F923F924F925F926F927F9267
S1131F708F929F92AF92BF92CF92DF92EF92FF9295
S1131F800F931F93CF93DF9300D01F92CDB7DEB78B
S1131F903C01DC011C96ED91FC911D9752968D91AC
S1131FA09C9153979C012150310953963C932E9355
S1131FB052979C01220F331FE20FF31F00811181FE
S1131FC09C012250310953963C932E935297DF0182
S1131FD01297ED90FC9021503109D30153963C9314
S1131FE02E935297DF011497CD90DC902150310944
S1131FF0D30153963C932E935297DF011697AD90DD
S1132000BC900597D30153969C938E93529738971F
S1132010208131813A832983232B09F472C0F3018F
S113202020843184EE0CFF1CF101EE0DFF1D408075
S113203051809201550C440B550BCC0CDD1CF10165
S1132040EC0DFD1D60817181072E000C880B990B2E
S1132050D501AA0FBB1FF101EA0FFB1F80809180FD
S1132060092C000CAA08BB0881149104A104B10432
S113207009F45EC0000F111F020D131DF2E0EF0EF4
S1132080F11CE20CF31CE2E0CE0ED11CC20CD31CFA
S1132090FD0132962E0E3F1E1C821B821DC0D701ED
S11320A04D905D907D019201550C440B550BF6014A
S11320B0619171916F01072E000C880B990BD1016E
S11320C08D909D901D01092C000CAA08BB08811459
S11320D09104A104B10461F10E94A555A5019401E4
S11320E00E94FF55F801219331938F012B813C818C
S11320F02F5F3F4F3C832B8389819A8182179307FB
S113210071F60F900F900F900F90DF91CF911F9168
S11321100F91FF90EF90DF90CF90BF90AF909F9082
S11321208F907F906F905F904F903F902F90089585
S113213082E090E0D3011F969C938E931E97A30197
S1132140405F5F4F22E030E067E070E9C3010F9029
S11321500F900F900F90DF91CF911F910F91FF90EF
S1132160EF90DF90CF90BF90AF909F908F907F9033
S11321706F905F904F903F902F900C94AC462F92AD
S11321803F924F925F926F927F928F929F92AF9203
S1132190BF92CF92DF92EF92FF920F931F93CF9350
S11321A0DF9300D000D0CDB7DEB7DC011C96ED91F3
S11321B0FC911D9752962D913C915397C90101971B
S11321C053969C938E935297C901880F991FBF0110
S11321D0680F791FFB0180819181A9014250510947
S11321E053965C934E935297AB0142505109FA01B6
S11321F0A080B180A9014350510953965C934E933A
S11322005297AB0144505109FA01C080D180245047
S1132210310953963C932E93529732972080318004
S11322202114310409F4E4C018968D909C901997F8
S1132230AA0CBB1CA80CB91CCC0CDD1CC80CD91CEA
S1132240880F991F880E991E00E010E00EC0F7FC5D
S1132250CCC080E090E0F401819391934F010F5F33
S11322601F4F2016310609F4C3C0F5014191519165
S11322705F015E834D83F601E190F1906F01452B80
S113228031F3E114F104A9F420E030E481E090E0BA
S1132290ED81FE811E161F0614F480E090E066278F
S11322A07727681B790B290146265726840D951D2F
S11322B0D2CF6D817E8177FDCAC0CB01770FAA0B87
S11322C0BB0B772766279701F7FCBCC0032E000CD5
S11322D0440B550B0E94FF5529013A0190E080E020
S11322E0A0E0B0E02D813E8107C0AD01942F852F81
S11322F01196A032B105B1F0B301A2010A2E04C0B7
S113230075956795579547950A94D2F7452B462BB3
S1132310472B59F7492F582F942F852F1196A03208
S1132320B10551F73E832D839A012C50310937FDB5
S113233078C061E070E080E090E0042E04C0660F95
S1132340771F881F991F0A94D2F7461A570A680AFA
S1132350790A4850510904C0759467945794479476
S11323604A95D2F7A2014F71552755944794559435
S11323704794559447945594479455944794C90168
S1132380880F991F880F991F880F991F840D951D19
S1132390FC01EE0FFF1FEF51F44F20813181A41B8C
S11323A0B50B880F991FFC01ED51F44F0190F0819A
S11323B0E02D0E9426562B013C019F01DA010E9468
S11323C02656460E571E681E791E75E0759467944E
S11323D0579447947A95D1F79201F7FE57CF80E04E
S11323E090E8821B930B9C0151CF80E090E833CF9F
S11323F026960FB6F894DEBF0FBECDBFDF91CF9106
S11324001F910F91FF90EF90DF90CF90BF90AF900E
S11324109F908F907F906F905F904F903F902F9000
S11324200895ACE8B2E0A30192010E944456DC0195
S1132430CB01ECE0B595A79597958795EA95D1F7EB
S11324409C01CBCF222733272E193F093FCF71950B
S11324506195710932CF2F923F924F925F926F92A2
S11324607F928F929F92AF92BF92CF92DF92EF9220
S1132470FF920F931F93CF93DF93DC011C96ED9192
S1132480FC911D9752964D915C915397CA01019707
S113249053969C938E9352979A01220F331FE20F07
S11324A0F31F808191819A012250310953963C9304
S11324B02E935297EF0122970881198143505109B5
S11324C053965C934E935297349720803180211415
S11324D0310409F46BC01896CD91DC911997000F63
S11324E0111F0C0F1D1F880F991FC80FD91FE0E083
S11324F0F0E060E8A62EB12C42C0AFEFBFE7A41B0A
S1132500B50BAD014F5F5F4F812C912CC12CD12CA9
S1132510CA01880F892F881F990B4F775527DC0133
S1132520AA0FBB1FA152B54F2D913C91B501641B5D
S1132530750B880F991F8F51954FDC01ED90FC901E
S1132540DB010E9426562B013C019701DA010E940F
S11325502656460E571E681E791EB7E0759467947A
S113256057944794BA95D1F74C245D24C201880D41
S1132570991D8993999331962E163F06B9F0D80187
S11325804D915D918D0157FD24C0413090E4590770
S11325900CF0B3CF4115B0E45B07A9F58FEF9FE7CB
S11325A08993999331962E163F0649F7DF91CF917F
S11325B01F910F91FF90EF90DF90CF90BF90AF905D
S11325C09F908F907F906F905F904F903F902F904F
S11325D008954115B0EC5B0744F450588824839463
S11325E0912CCC24CA94DC2C93CF411580EC580751
S11325F079F051954195510988248394912CCC24E8
S1132600CA94DC2C85CF812C912CC12CD12C80CF69
S113261081E090E8AECF2F923F924F925F926F92FB
S11326207F928F929F92AF92BF92CF92DF92EF925E
S1132630FF920F931F93CF93DF93DC011C96ED91D0
S1132640FC911D9752964D915C915397CA01019745
S113265053969C938E9352979A01220F331FE20F45
S1132660F31F808191819A012250310953963C9342
S11326702E935297EF0122970881198143505109F3
S113268053965C934E935297349720803180211453
S1132690310409F46AC01896CD91DC911997000FA2
S11326A0111F0C0F1D1F880F991FC80FD91FE0E0C1
S11326B0F0E040E8A42EB12C3FC040E050E4481BB9
S11326C0590B812C912CC12CD12CCA01880F892F34
S11326D0881F990B4F775527DC01AA0FBB1FA15206
S11326E0B54F2D913C91B501641B750B880F991F53
S11326F08F51954FDC01ED90FC90DB010E94265632
S11327002B013C019701DA010E942656460E571E02
S1132710681E791EB7E07594679457944794BA95E8
S1132720D1F74C245D24C201880D991D8993999396
S113273031962E163F06C9F0D8018D919D918D01D9
S1132740AC01505C57FD24C0413020E452070CF02A
S1132750B4CF411580E4580749F58FEF9FE789937B
S1132760999331962E163F0639F7DF91CF911F9139
S11327700F91FF90EF90DF90CF90BF90AF909F901C
S11327808F907F906F905F904F903F902F9008951F
S11327904130B0EC5B077CF0519541955109882498
S11327A08394912CCC24CA94DC2C8FCF812C912C33
S11327B0C12CD12C8ACF81E090E8B8CF2F923F92E0
S11327C04F925F926F927F928F929F92AF92BF923D
S11327D0CF92DF92EF92FF920F931F93CF93DF93E9
S11327E0CDB7DEB72A970FB6F894DEBF0FBECDBFC4
S11327F0AC01FC01A485B585828993899C01215093
S11328003109338B228B9C01220F331FA20FB31F7C
S11328100D911C9111979C0122503109338B228B0D
S1132820FD013297208131810397FA01938B828BCA
S113283040855185F901EE0FFF1FE40FF51F40801D
S11328405180228133813A87298714970D90BC9156
S1132850A02DAA0FBB1FA40FB51FED90FC909701EC
S1132860305C37FD34C1213070E437070CF0C1C04F
S1132870211580E4380709F03DC16FEF7FE780E060
S113288090E069837A838B839C83F7FCF8C0A1E092
S1132890EA16A0E4FA060CF404C180E090E8FC0116
S11328A0EE19FF097F01212C312C612C712CC701F9
S11328B0880F892F881F990BE894E7F8FF24DC011F
S11328C0AA0FBB1FA152B54F2D913C91A0E8B0E0D7
S11328D0AE19BF09880F991F8F51954FFC01C08015
S11328E0D1800E9426564B015C019601D7010E94BB
S11328F02656DC01CB01880D991DAA1DBB1DE7E0FE
S1132900B595A79597958795EA95D1F7B30168276B
S11329107927620D731DCB01770FAA0BBB0B8D8337
S11329209E83AF83B887052C000C66087708E98579
S1132930FA854F01FF0FAA08BB08000F111FFA0107
S1132940E00FF11FA301920169817A818B819C813F
S11329500E94A5556B017C01A50194016D817E81C6
S11329608F8198850E94A555C61AD70AE80AF90AE4
S11329709FE0F594E794D794C7949A95D1F7D182C0
S1132980C08269817A818B819C810E94A5556B01EB
S11329907C01A30192016D817E818F8198850E94C3
S11329A0A555DC01CB018C0D9D1DAE1DBF1D2FE077
S11329B0B595A795979587952A95D1F793838283A3
S11329C02A960FB6F894DEBF0FBECDBFDF91CF912C
S11329D01F910F91FF90EF90DF90CF90BF90AF9039
S11329E09F908F907F906F905F904F903F902F902B
S11329F0089520E030E42E193F09212C312C612C5C
S1132A00712CC901880F892F881F990BF901EF7761
S1132A10FF27FA83E983DC01AA0FBB1FA152B54F3C
S1132A202D913C91A0E8B0E0AE1BBF0B880F991F1D
S1132A308F51954FFC01C080D1800E9426564B01D6
S1132A405C019601A981BA810E942656860E971EC2
S1132A50A81EB91EF7E0B594A79497948794FA95A5
S1132A60D1F786249724820C931CB401990C880B0B
S1132A70990B69837A838B839C83F7FE08CFE114D7
S1132A8070ECF706DCF0E11490ECF906C1F1F19476
S1132A90E194F10822242394312C66246A94762C40
S1132AA006CFE114F0E4FF0601F58FEF9FE7A0E005
S1132AB0B0E08D839E83AF83B88735CF80E8F81A62
S1132AC022242394312C66246A94762CF0CE21306F
S1132AD060EC3607ECF031952195310922242394DA
S1132AE0312C66246A94762C8CCF212C312C612CC9
S1132AF0712CDDCE212C312C612C712C82CF61E024
S1132B0070E88FEF9FEF6D837E838F8398870BCF61
S1132B1081E090E8AFEFBFEF89839A83AB83BC83F6
S1132B20B4CEBF92CF92DF92EF92FF920F931F9396
S1132B30CF93DF93DC011C96ED91FC911D97529687
S1132B408D919C9153979C012150310953963C934C
S1132B502E9352979C01220F331FE20FF31F4081E3
S1132B6051819C012250310953963C932E935297E4
S1132B709F0122503109E901088119810397539675
S1132B809C938E9352973497E080F180E114F10482
S1132B9009F458C018962D913C911997000F111FF4
S1132BA0020F131FCA01880F991FE901C80FD91F0B
S1132BB0A0E0B0E0F801819191918F0140E050E4F0
S1132BC08115F0E49F0754F455954795559547951D
S1132BD084179507CCF34115510559F120E030E0F5
S1132BE012C0BE2EEF2F8617970704F5922F832F5E
S1132BF0292F382F55954795559547958B2D9E2F01
S1132C0041155105C1F0B901640F751FFC01E61BA4
S1132C10F70B359527956A01C20ED31E86179707C1
S1132C2004F7B82EE92F8617970704F39C2D8D2DF2
S1132C30DFCF20E030E0299339931196EA16FB06A2
S1132C4009F0B8CFDF91CF911F910F91FF90EF90D2
S1132C50DF90CF90BF900895CF93DF93EC01AC85C4
S1132C60BD854A895B89CA0101979B8B8A8B9A012E
S1132C70220F331FA20FB31FED91FC911197425005
S1132C8051095B8B4A8B12976D917C91611571058B
S1132C9019F18091600F9091610FEE0FFF1F28854D
S1132CA03985E20FF31F20E030E0A5E5B2E68A9F04
S1132CB0A0018B9F500D9A9F500D1124CA01875E6D
S1132CC0994C819391932F5F3F4F6217730779F764
S1132CD09093610F8093600FDF91CF9108958EE9F7
S1132CE092E0089580E49FE008950895FB01EE0FBB
S1132CF0FF1FED5DF24F0190F081E02D199484E304
S1132D0092E00895CF92DF92FF920F931F93CF9397
S1132D10DF9300D0CDB7DEB7F62E8A01CA01029741
S1132D2060E07B8389839A830E94853160E09A8185
S1132D30892F0E948531D090690260E080916802F9
S1132D400E94853160E08D2D0E9485317B810115C3
S1132D50110569F0CF2CD72E0C0D1D1D60E0F60176
S1132D6081916F010E948531C016D106B9F70F9089
S1132D700F900F90DF91CF911F910F91FF90DF90F3
S1132D80CF9008951F93CF93DF93F90185E690E0E8
S1132D903FB7F89440916819509169193FBF019762
S1132DA0E9F0452BA9F32FB7F894A0916618B0E089
S1132DB0A859B74EAC9180916819909169190197FF
S1132DC090936919809368192FBF809166188F5F5B
S1132DD08093661880916A19882341F010926A19C9
S1132DE080E090E0DF91CF911F91089585E690E017
S1132DF03FB7F89440916819509169193FBF019702
S1132E0069F3452BA9F33FB7F894C0916618D0E055
S1132E10C859D74E288180916819909169190197F2
S1132E2090936919809368193FBF809166188F5FEA
S1132E3080936618B0E0B22B80916A198111CECFCD
S1132E401296A330B10530F480E090E0DF91CF9189
S1132E501F91089585E690E03FB7F8944091681972
S1132E60509169193FBF019709F481C0452BA1F323
S1132E703FB7F894C0916618D0E0C859D74E28815E
S1132E8080916819909169190197909369198093B9
S1132E9068193FBF809166188F5F80936618809190
S1132EA06A19811164C085E690E03FB7F8944091B7
S1132EB06819509169193FBF019709F458C0452B0F
S1132EC0A1F34FB7F894C0916618D0E0C859D74E13
S1132ED038818091681990916919019790936919C3
S1132EE0809368194FBF809166188F5F809366182E
S1132EF0822F90E0932B20916A19211138C091837D
S1132F008083EB016A0F7B1F11E085E690E02FB709
S1132F10F89440916819509169192FBF019751F1A4
S1132F20452BA9F39FB7F894E0916618F0E0E859AF
S1132F30F74E808120916819309169192150310927
S1132F4030936919209368199FBF909166189F5F09
S1132F5090936618899380916A1981113FCFC6179F
S1132F60D70799F6CD01DF91CF911F910895118272
S1132F70108234CF10936A1980E0ECCF8F929F9225
S1132F80AF92BF92CF92DF92EF92FF920F931F9373
S1132F90CF938091A81C9091A91C20916C0F309123
S1132FA06D0F8217930779F0803891050CF01DC2DC
S1132FB081382FEF92070CF415C290936D0F809314
S1132FC06C0F0E94001F8091AA1C9091AB1C209151
S1132FD06A0F30916B0F8217930779F0803891054F
S1132FE00CF0F8C18138EFEF9E070CF4F0C1909318
S1132FF06B0F80936A0F0E941D1F8091F9179091A7
S1133000FA1725E030E0B9010E94C9557093AD1C50
S11330106093AC1C8091F7179091F817B9010E9446
S1133020C9557093AF1C6093AE1C0E94CC2A80914A
S1133030B719882309F47BC01092B71990EBA92E15
S11330409CE1B92E2CEDE22E2CE1F22E07EA19E1D7
S1133050C0E0812C912CF501819191915F0161E097
S1133060892B09F460E08C2F0E94D81BF401EE0F29
S1133070FF1FE15EF54E80819181F7018193919369
S11330807F01F801819191918F01F501938F828FD6
S1133090F2E08F0E911CCF5FC830E9F680913F1AA1
S11330A09091401A9093F51C8093F41C8091171A08
S11330B09091181A9093ED1C8093EC1C8091431A04
S11330C09091441A9093F71C8093F61C8091191ADE
S11330D090911A1A9093EF1C8093EE1C8091471ADA
S11330E09091481A9093F91C8093F81C80911B1AB4
S11330F090911C1A9093F11C8093F01C80914B1AB0
S113310090914C1A9093FB1C8093FA1C80911D1A89
S113311090911E1A9093F31C8093F21C80916E0F71
S113312090916F0F816090936F0F80936E0F8091D9
S1133130320290913302892B09F4EAC00E94C741FC
S1133140209132023091330281E090E0821B930B94
S113315090933302809332028091C01C9091C11CE1
S113316097FD9DC18F3F910511F00CF02DC1809505
S11331700E949C1B8091C21C9091C31C97FD98C116
S11331808F3F910511F00CF01CC180950E94B01B7B
S11331908091C41C9091C51C97FD93C18F3F9105EC
S11331A011F00CF00BC180950E94C41B0E94C24315
S11331B0482F50E05093031D4093021D209131028B
S11331C030E04217530749F020916E0F30916F0F92
S11331D0206230936F0F20936E0F809331028091A1
S11331E0C61C9091C71C892B09F490C04598809106
S11331F0C81C9091C91C892B09F46FC04498809114
S11332006518811170C08091030185FBCC24C0F83E
S1133210D12CD092CB1CC092CA1C8091300290E079
S1133220C816D90649F080916E0F90916F0F846093
S113323090936F0F80936E0FC09230020E944044AF
S11332400091660F1091670F2091680F3091690FFC
S1133250DC01CB01801B910BA20BB30B8E319B4481
S1133260A105B10508F0FAC08091EE178111D9C00B
S11332708091141D9091151D1816190614F50E94BD
S113328040440091620F1091630F2091640F3091BC
S1133290650F601B710B820B930B2AE030E040E05A
S11332A050E00E94DD558091141D9091151D092E4A
S11332B0000CAA0BBB0B281739074A075B0708F059
S11332C09CC0CF911F910F91FF90EF90DF90CF9012
S11332D0BF90AF909F908F900895449A8091651805
S11332E0882309F490CF0E94E44590E09093051D53
S11332F08093041D1092651880916E0F90916F0F4A
S1133300806190936F0F80936E0F7DCF459A6FCF3E
S11333100E94084280916218909163189093FD1C5A
S11333208093FC1C80916018909161189093FF1C0D
S11333308093FE1C80915E1890915F189093011DFC
S11333408093001D80916E0F90916F0F8260909317
S11333506F0F80936E0F0E94CD4221EE3EE245E650
S113336052E4609128187091291880912A1890913C
S11333702B180E94E0580E94AE5770930F1D609363
S11333800E1D609124187091251880912618909133
S113339027180E94AE577093111D6093101D609101
S11333A020187091211880912218909123180E945E
S11333B0AE577093131D6093121DC2CE8FEF90E031
S11333C0F2CE8FEF90E0E1CE8FEF90E0D0CE81E8A7
S11333D09FEF0DCE8FE790E08138EFEF9E070CF062
S11333E006CEF5CF81E89FEFE8CD8FE790E08138F6
S11333F02FEF92070CF0E1CDF5CF80916E0F9091F5
S11334006F0F806490936F0F80936E0F0E944044FF
S11334106093620F7093630F8093640F9093650FB2
S113342050CF0E94C1020E94B609813009F46AC0DB
S11334300E94BE09813009F01BCF0E94C10990E0AF
S113344090930B1D80930A1D80916E0F90916F0FC6
S1133450886090936F0F80936E0F0ACF0E94494447
S11334602091B9193091BA193093071D2093061D84
S1133470263A83E0380738F52D30E3E03E0750F56F
S11334801092091D1092081D0E9440446093660F1B
S11334907093670F8093680F9093690FE5CE8FEF59
S11334A00E949C1B8091C21C9091C31C97FF68CE04
S11334B08FEF0E94B01B8091C41C9091C51C97FF94
S11334C06DCE8FEF71CE84E690E09093091D8093CA
S11334D0081DDACFC901A0E0B0E09C01AD012C5079
S11334E0334041095109A4E6B0E00E9444562AE958
S11334F030E040E050E00E94FF553093091D2093D6
S1133500081DC2CF80910C1D0E94AD0991CF0F936D
S11335101F93CF93DF938C010E94561C65E070E0EB
S113352080E098E00E944B5AC0E0D0E09E012E7FDC
S1133530D8011496ED91FC911597E20FF31F608169
S11335407181CE01805090400E944B5A2296C11541
S1133550B8E0DB0759F7DF91CF911F910F910C94DD
S11335603D1C0C94000008950F931F93CF930E9469
S1133570C243C82F082F10E00F5F1F4F109369023A
S11335800093680288E692E00E94CB4A1093631C81
S11335900093621C1092C11C1092C01C1092C31C98
S11335A01092C21C1092C51C1092C41CC05DC09322
S11335B01B030E943D1C1092A71C1092A61CCF91C5
S11335C01F910F9108950E94D6430E94B41A0E943D
S11335D01F3D80E098E00E940F5A059709F46BC0E4
S11335E004B600FE03C084B78E7F84BF04B601FE18
S11335F007C084B78D7F84BF88E692E00E9450475D
S113360088E692E00E94B5490E94BE1764E670E025
S113361088E692E00E94144E80917602909177029F
S113362083709927039761F380916E0F90916F0FC8
S113363080FD23C081FD26C082FD29C083FD2CC0EE
S113364084FD2FC085FD32C086FFDACF68EF7FEF9F
S11336502FEB3FEF8223932390936F0F80936E0F92
S113366080916802909169029093651C8093641C18
S113367088E692E00E94E04AC3CF6EEF7FEF2EEF20
S11336803FEFE8CF6DEF7FEF2DEF3FEFE3CF6CEF30
S11336907FEF2BEF3FEFDECF6BEF7FEF27EF3FEFB7
S11336A0D9CF6AEF7FEF2FEE3FEFD4CF69EF7FEFF3
S11336B02FED3FEFCFCF00916C0210916D02C0E06F
S11336C0D0E0CE018E7F7801E80EF91ECE01805045
S11336D090400E940F5AF701918380832296C1156E
S11336E0F8E0DF0771F76FEF7FEF88E692E00E9462
S11336F0E04A76CFA0E8B0E01C92E1E8F0E0108266
S11337008C91896A8C93808189608083809126035F
S113371090E090938900809388008091250390E045
S113372090938B0080938A008091240390E090937F
S11337308D0080938C000895882359F09091800027
S113374090689093800090E0909389008093880023
S11337500895809180008F77809380002D9808953C
S1133760882359F09091800090629093800090E0BB
S113377090938B0080938A000895809180008F7DC0
S1133780809380002E980895882359F090918000AA
S113379098609093800090E090938D0080938C00CB
S11337A0089580918000877F809380002F980895EA
S11337B090E08830910570F4FC018827EE58FF4FA3
S11337C08F4F0C941E5680910B01611152C080687A
S11337D080930B01089580910B01662381F18F7B07
S11337E080930B01089580910B01662361F18E7F14
S11337F080930B01089580910B01662361F18D7F05
S113380080930B01089580910B01662361F18B7FF6
S113381080930B01089580910B01662301F18F7E43
S113382080930B010895662311F1A3980895809164
S11338300B01662361F08F7D80930B0108958064F2
S113384080930B010895816080930B010895806239
S113385080930B010895826080930B010895806129
S113386080930B010895846080930B010895A39ABB
S113387008958F7780930B010895EBE0F1E0808148
S11338808160808380818260808380818460808382
S1133890A39A80818061808380818062808380811B
S11338A0806480838081806880830895EBE0F1E008
S11338B080818E7F808380818D7F808380818B7FD8
S11338C08083A39880818F7E808380818F7D808395
S11338D080818F7B808380818F77808308950F938D
S11338E01F93CF93DF93E0E9F0E0108241E950E0C9
S11338F0DA011C9221E730E0E9011882A0EAB0E085
S11339001C9281EA90E0EC01188202E710E0E801E1
S11339101882608163686083608163606083EA0108
S113392068816B60688340918D1950918E19509312
S113393099004093980010929B0010929A00E9011C
S113394048814160488320812F7520832EB1277ED2
S11339502EB92C9123682C93FC0120812B602083A9
S113396080918B1990918C199093A9008093A80051
S11339701092AB001092AA00E801888181608883CC
S11339808C918F758C93E2E0F1E08081877E808357
S1133990DF91CF911F910F910895AF92BF92CF9273
S11339A0DF92EF92FF920F931F93CF93DF93809157
S11339B0FE1D882309F4C1C0C0918519D0918619D0
S11339C080918319909184198C01000F111F000FAD
S11339D0111F080F191F80912A038823C1F16091D8
S11339E09519709196197695679576956795709364
S11339F092196093911910922A03109296191092B9
S1133A009519809187199091881975956795759581
S1133A1067957595679597FD50C1072E000C880B27
S1133A20990B0E94E6579B01AC0160919F1970911C
S1133A30A0198091A1199091A2190E9459566093DE
S1133A409F197093A0198093A1199093A219809142
S1133A5029038823C1F16091931970919419769583
S1133A606795769567957093901960938F19109266
S1133A7029031092941910929319809189199091A5
S1133A808A1975956795759567957595679597FDE9
S1133A90F9C0072E000C880B990B0E94E6579B0176
S1133AA0AC016091A3197091A4198091A51990910A
S1133AB0A6190E9459566093A3197093A419809370
S1133AC0A5199093A619CE01880F991F880F991FE5
S1133AD08C0F9D1F90937619809375191093741908
S1133AE00093731920912E182111B1C010938C19D1
S1133AF000938B1990938E1980938D1918161906BB
S1133B000CF0B4C0909399008093980080918B1925
S1133B1090918C19181619060CF08DC09093A90079
S1133B208093A800DF91CF911F910F91FF90EF90A8
S1133B30DF90CF90BF90AF9008950E944044DC0185
S1133B40CB019C01AD0160E070E080E090E0A090CA
S1133B503418B0903518C0903618D0903718E090CB
S1133B603818F090391800913A1810913B180E94B7
S1133B704F562F38314041055105610571058105C6
S1133B80910509F008F418CF0E944044DC01CB01F0
S1133B908093341890933518A0933618B09337183F
S1133BA0109238181092391810923A1810923B1843
S1133BB080913318882309F4A3C0809189199091C6
S1133BC08A19009709F0BCC01092861910928519C1
S1133BD0C0E0D0E0009187191091881901151105F2
S1133BE009F4CBC08091831990918419089F9001A6
S1133BF0099F300D189F300D112437FDFAC080172E
S1133C0091070CF0BFC020911E03820F911D909369
S1133C10841980938319081719070CF4DAC0C0912A
S1133C208519D09186198C01000F111F000F111FE7
S1133C30080F191FD0CE009709F07AC01092A9007E
S1133C401092A8001092AB001092AA006BCF65E707
S1133C5079E183E799E10E94C231009173191091CF
S1133C607419809175199091761940CF009709F0D5
S1133C703FC0109299001092980010929B001092ED
S1133C809A0044CF072E000C880B990B0E94E6572C
S1133C909B01AC016091A3197091A4198091A5199D
S1133CA09091A6190E9458566093A3197093A41971
S1133CB08093A5199093A61906CF072E000C880BA4
S1133CC0990B0E94E6579B01AC0160919F1970917A
S1133CD0A0198091A1199091A2190E94585660933D
S1133CE09F197093A0198093A1199093A219AFCE34
S1133CF091958195910990939B0080939A0006CFAA
S1133D00C0918919D0918A19D0938619C0938519C5
S1133D1080918719909188199093841980938319BD
S1133D208C01000F111F000F111F080F191F53CE14
S1133D309195819591099093AB008093AA00F2CE5E
S1133D40C0918519D09186198C9F90018D9F300D5B
S1133D509C9F300D112437FD37CFC817D9074CF578
S1133D6020911E03C20FD11D8C179D076CF59093F3
S1133D70861980938519EC012DCF10928419109225
S1133D80831929CE081719075CF620911E03821B9C
S1133D909109801791070CF0BFCF109384190093F9
S1133DA08319C801880F991F880F991F080F191FBD
S1133DB012CE8C179D070CF00DCF20911E03C21B51
S1133DC0D109C817D9079CF2D0938619C0938519D5
S1133DD001CF1093841900938319C0918519D09150
S1133DE08619C801880F991F880F991F080F191F7A
S1133DF0F2CD109284191092831900E010E0EBCDFB
S1133E00282F082E000C330B37FD13C03093721982
S1133E102093711987FD05C0309388192093871961
S1133E200895319521953109309388192093871984
S1133E300895319521953109E9CF282F082E000CDA
S1133E40330B37FD13C03093701920936F1987FD1E
S1133E5005C030938A1920938919089531952195C5
S1133E60310930938A192093891908953195219540
S1133E703109E9CF8F929F92AF92BF92CF92DF9296
S1133E80EF92FF920F931F93CF93DF931F921F9292
S1133E90CDB7DEB79C01220F331F220F331F820FD1
S1133EA0931F009709F48CC041E050E02EEF260FD9
S1133EB0223008F096C0262F66277727641B750BDF
S1133EC086279727840F951F211172C06091BC200B
S1133ED07091BD20681779070CF0FDC12091CC20AA
S1133EE03091CD20281739070CF0EDC12091DC204A
S1133EF03091DD20281739070CF0E9C12091EC201E
S1133F003091ED20281739070CF08DC12091FC2049
S1133F103091FD20281739070CF0EDC120910C21B8
S1133F2030910D21281739070CF0E9C120911C218B
S1133F3030911D21281739070CF0E5C120912C215F
S1133F4030912D21281739070CF0E1C100913C2153
S1133F5010913D21081719070CF0DDC1BC01990F20
S1133F60880B990B0E94E6576B017C0180913A21E2
S1133F7090913B21BC01990F880B990B0E94E65745
S1133F809B01AC01C701B6010E94E0586B017C01A2
S1133F90B801110F880B990B0E94E6579B01AC01E5
S1133FA0C701B6010E943C570E94AE57CB010AC01C
S1133FB0233009F4E3C02230B9F0213009F489C078
S1133FC080E090E00F900F90DF91CF911F910F91BF
S1133FD0FF90EF90DF90CF90BF90AF909F908F9025
S1133FE0089540E050E067CF6091C4207091C520EF
S1133FF0681779070CF0A3C12091D4203091D52003
S1134000281739070CF0AEC12091E4203091E52047
S1134010281739070CF0D8C22091F4203091F520EC
S1134020281739070CF0CCC22091042130910521C6
S1134030281739070CF0C0C22091142130911521A2
S1134040281739070CF0B4C220912421309125217E
S1134050281739070CF0A8C220913421309135215A
S1134060281739070CF0B7C200914421109145215B
S1134070081719070CF0B3C2BC01990F880B990BF0
S11340800E94E6576B017C0180914221909143216B
S1134090BC01990F880B990B0E94E6579B01AC0158
S11340A0C701B6010E94E0586B017C01B801110FF1
S11340B0880B990B0E94E6579B01AC01C701B6011E
S11340C00E943C570E94AE5788279927861B970B5E
S11340D079CF6091C0207091C120681779070CF0E6
S11340E01EC12091D0203091D120281739070CF01F
S11340F006C22091E0203091E120281739070CF006
S11341003FC22091F0203091F120281739070CF09C
S113411033C22091002130910121281739070CF076
S11341203FC22091102130911121281739070CF03A
S113413033C22091202130912121281739070CF016
S113414027C22091302130913121281739070CF0F2
S11341501BC20091402110914121081719070CF04E
S113416042C2BC01990F880B990B0E94E6576B0160
S11341707C0180913E2190913F21FCCE6091C8202A
S11341807091C920681779070CF0A6C12091D82036
S11341903091D920281739070CF09BC12091E820D1
S11341A03091E920281739070CF090C12091F820AC
S11341B03091F920281739070CF085C12091082186
S11341C030910921281739070CF07AC12091182160
S11341D030911921281739070CF06FC1209128213B
S11341E030912921281739070CF064C12091382116
S11341F030913921281739070CF007C10091482163
S113420010914921081719070CF0E2C1BC01990F5C
S1134210880B990B0E94E6576B017C018091462123
S11342209091472135CF53E0C52ED12CF601E2956C
S1134230F295F07FFE27E07FFE27E655FF4DE280F2
S1134240F38000811181BC016E197F09072E000CD7
S1134250880B990B0E94E6574B015C01C294D294DF
S1134260B0EFDB22DC24CB22DC24C60186549F4D34
S11342706C01FC0180819181801B910BBC01990F21
S1134280880B990B0E94E6579B01AC01C501B40150
S11342900E94E0584B015C01F601828193818E19E2
S11342A09F09BC01990F880B990B0E94E6579B014B
S11342B0AC01C501B4010E943C570E94AE57C8012D
S11342C0860F971F7FCECC24C394D12CAFCF62E04E
S11342D0C62ED12CABCF4091BA205091BB20849FE5
S11342E09001859F300D949F300D1124C9010E94C7
S11342F0C955CB0167CE44E0C42ED12C97CF35E00D
S1134300C32ED12C93CF26E0C22ED12C8FCF07E021
S1134310C02ED12C8BCF18E0C12ED12C87CF409149
S1134320BE205091BF20849F9001859F300D949FA3
S1134330300D1124C9010E94C955CB0143CE4091CF
S1134340C2205091C320849F9001859F300D949F7B
S1134350300D1124C9010E94C95588279927861B4D
S1134360970B30CECC24C394D12CF601E295F29570
S1134370F07FFE27E07FFE27E655FF4DE284F384BD
S113438000851185BC016E197F09072E000C880B6E
S1134390990B0E94E6574B015C01C294D294B0EF92
S11343A0DB22DC24CB22DC24C60186549F4D6C0125
S11343B0FC0160857185601B710B072E000C880B56
S11343C0990B0E94E6579B01AC01C501B4010E9400
S11343D0E0584B015C01F601828593858E199F0993
S11343E0BC01990F880B990B0E94E6579B01AC0105
S11343F0C501B4010E943C570E94AE57600F711F63
S113440088279927861B970BDDCD27E030E0F9013B
S1134410E295F295F07FFE27E07FFE27E655FF4DFB
S113442006851785C484D584BC01601B710B072ED7
S1134430000C880B990B29833A830E94E6574B01A1
S11344405C0129813A8122953295307F3227207F81
S11344503227C90186549F4D7C01FC016485758512
S11344606C197D09072E000C880B990B0E94E657E6
S11344709B01AC01C501B4010E94E0584B015C01F1
S1134480F70186859785801B910BBC01990F880BDA
S1134490990B0E94E6579B01AC01C501B4010E942F
S11344A03C570E94AE576C0D7D1D88279927861BAB
S11344B0970B88CD26E030E0AACF25E030E0A7CFE7
S11344C024E030E0A4CF23E030E0A1CF22E030E0CC
S11344D09ECF21E030E09BCF4091C6205091C72071
S11344E0849F9001859F300D949F300D1124C90144
S11344F00E94C95588279927861B970B63CDCC2426
S1134500C394D12CF601E295F295F07FFE27E07F6B
S1134510FE27E655FF4DE680F78004811581BC0136
S11345206E197F09072E000C880B990B0E94E65721
S11345304B015C01C294D29480EFD822DC24C822BF
S1134540DC24C60186549F4D6C01FC016481758195
S1134550601B710B072E000C880B990B0E94E65709
S11345609B01AC01C501B4010E94E0584B015C0100
S1134570F6018681978193CE73E0C72ED12CC2CFEA
S1134580E2E0CE2ED12CBECF37E0C32ED12CBACF51
S113459046E0C42ED12CB6CF55E0C52ED12CB2CFD7
S11345A064E0C62ED12CAECFE6E0CE2ED12CDDCEEB
S11345B0F5E0CF2ED12CD9CEA4E0CA2ED12CD5CE65
S11345C0B3E0CB2ED12CD1CE12E0C12ED12CCDCE46
S11345D028E030E01CCF77E0C72ED12CC6CE68E0AF
S11345E0C62ED12CC2CE28E0C22ED12C8BCF8F92D6
S11345F09F92AF92BF92CF92DF92EF92FF920F936E
S11346001F93CF93DF93C0918F19D091901980910C
S11346108D1990918E1997FD0AC16091BE207091F9
S1134620BF206C177D070CF483C000E010E080917C
S1134630DE209091DF208C179D070CF0B9C080918B
S1134640EE209091EF208C179D070CF482C00F3F51
S11346508FEF180709F4F9C180910E2190910F2171
S11346608C179D070CF0B8C080911E2190911F21DA
S11346708C179D070CF481C00F3F8FEF180709F4C6
S1134680E1C1209709F4C2C00115110509F410C253
S11346900F3F8FEF180709F4A4C1F801E295F295D2
S11346A0F07FFE27E07FFE27E655FF4DC480D580CE
S11346B0E680F780CC19DD09BE01DD0F880B990B6C
S11346C00E94E6574B015C0102951295107F10275A
S11346D0007F1027E801C654DF4D6E817F816E197B
S11346E07F09072E000C880B990B0E94E6579B014B
S11346F0AC01C501B4010E94E0584B015C018C81FE
S11347009D818C199D09BC01990F880B990B0E94FE
S1134710E6579B01AC01C501B4010E943C570E94BD
S1134720AE576E0D7F1D7093F8176093F71772C024
S11347308091CE209091CF208C179D076CF101E0E1
S113474010E08091EE209091EF208C179D070CF0E3
S113475083CF8091FE209091FF208C179D077CF1E0
S11347600F3F8FEF180709F476C180911E219091B5
S11347701F218C179D070CF084CF80912E219091DE
S11347802F218C179D0784F10F3F8FEF180709F035
S113479078CF07E010E075CF0FEF1FEF8091DE2098
S11347A09091DF208C179D070CF449CF02E010E0B4
S11347B08091FE209091FF208C179D07B4F6809184
S11347C00E2190910F218C179D070CF44DCF0F3FB4
S11347D08FEF180709F43CC180912E2190912F216D
S11347E08C179D070CF04DCF80913E2190913F2175
S11347F08C179D070CF445CF0F3F8FEF180709F076
S113480040CF08E010E0209709F042CF1092F8174B
S11348101092F717DF91CF911F910F91FF90EF90B6
S1134820DF90CF90BF90AF909F908F90089560914C
S1134830C6207091C7206C177D070CF451C000E0AE
S113484010E08091E6209091E7208C179D070CF0F2
S11348505BC08091F6209091F7208C179D070CF493
S113486017C10F3F8FEF180709F463C18091162118
S1134870909117218C179D070CF44EC00F3F8FEFBA
S1134880180709F450C180913621909137218C1773
S11348909D076CF4E0904621F0904721EC16FD064C
S11348A00CF44FC00F3F8FEF180709F445C10115F1
S11348B0110509F04FC02091C8203091C920C29F32
S11348C0C001C39F900DD29F900D11240E94C95521
S11348D07195619571097093F8176093F7179ACFE2
S11348E08091D6209091D7208C179D070CF0C6C0DC
S11348F00FEF1FEF8091E6209091E7208C179D0722
S11349000CF4A7CF02E010E08091062190910721DA
S11349108C179D070CF4AACF809126219091272112
S11349208C179D070CF49AC00F3F8FEF180709F4FA
S1134930FDC0E0904621F0904721EC16FD060CF0F6
S1134940B6CF0115110509F4B6CF0F3F8FEF180745
S113495009F4C0C0F801E295F295F07FFE27E07FEC
S1134960FE27E655FF4DC484D584E684F784CC192C
S1134970DD09BE01DD0F880B990B0E94E6574B0140
S11349805C0102951295107F1027007F1027E80123
S1134990C654DF4D6E857F856E197F09072E000C86
S11349A0880B990B0E94E6579B01AC01C501B40129
S11349B00E94E0584B015C018C859D858C199D09F2
S11349C0BC01990F880B990B0E94E6579B01AC011F
S11349D0C501B4010E943C570E94AE576E0D7F1D65
S11349E077CF6091402170914121072E000C880BF4
S11349F0990B0E94E6576B017C01BE01DD0F880B09
S1134A00990B0E94E6579B01AC01C701B6010E94B5
S1134A10E0586B017C0180913E2190913F21BC01C3
S1134A20990F880B990B0E94E6579B01AC01C701B3
S1134A30B6010E943C570E94AE577093F8176093DA
S1134A40F717E8CE06E010E01CCE03E010E004CE39
S1134A5005E010E0C1CE04E010E087CE809136215D
S1134A60909137218C179D070CF414CF0F3F8FEFD3
S1134A70180709F01CCF07E010E019CF01E010E09F
S1134A808091F6209091F7208C179D070CF0EECEC4
S1134A9080910621909107218C179D070CF4E6CE96
S1134AA00F3F8FEF180709F037CF04E010E034CF41
S1134AB02091C0203091C120C29FC001C39F900D9E
S1134AC0D29F900D11240E94C9557093F8176093DA
S1134AD0F717A0CE6091482170914921072E000C50
S1134AE0880B990B0E94E6574B015C01BE01DD0F58
S1134AF0880B990B0E94E6579B01AC01C501B401D8
S1134B000E94E0584B015C01B701FF0C880B990B24
S1134B100E94E6579B01AC01C501B4010E943C57B9
S1134B200E94AE57D5CE05E010E0ADCE06E010E011
S1134B3000CF03E010E09ACE08E010E006CF8F9299
S1134B409F92AF92BF92CF92DF92EF92FF920F9318
S1134B501F93CF93DF93C0919119D09192198091B3
S1134B608B1990918C1997FD0AC16091BA207091AC
S1134B70BB206C177D070CF483C000E010E080912B
S1134B80DA209091DB208C179D070CF0B9C080913E
S1134B90EA209091EB208C179D070CF482C00F3F04
S1134BA08FEF180709F4F9C180910A2190910B2124
S1134BB08C179D070CF0B8C080911A2190911B218D
S1134BC08C179D070CF481C00F3F8FEF180709F471
S1134BD0E1C1209709F4C2C00115110509F410C2FE
S1134BE00F3F8FEF180709F4A4C1F801E295F2957D
S1134BF0F07FFE27E07FFE27E655FF4DC080D18081
S1134C00E280F380CC19DD09BE01DD0F880B990B1E
S1134C100E94E6574B015C0102951295107F102704
S1134C20007F1027E801C654DF4D6A817B816E192D
S1134C307F09072E000C880B990B0E94E6579B01F5
S1134C40AC01C501B4010E94E0584B015C018881AC
S1134C5099818C199D09BC01990F880B990B0E94AD
S1134C60E6579B01AC01C501B4010E943C570E9468
S1134C70AE576E0D7F1D7093FA176093F91772C0CB
S1134C808091CA209091CB208C179D076CF101E094
S1134C9010E08091EA209091EB208C179D070CF096
S1134CA083CF8091FA209091FB208C179D077CF193
S1134CB00F3F8FEF180709F476C180911A21909164
S1134CC01B218C179D070CF084CF80912A21909191
S1134CD02B218C179D0784F10F3F8FEF180709F0E4
S1134CE078CF07E010E075CF0FEF1FEF8091DA2047
S1134CF09091DB208C179D070CF449CF02E010E063
S1134D008091FA209091FB208C179D07B4F6809136
S1134D100A2190910B218C179D070CF44DCF0F3F66
S1134D208FEF180709F43CC180912A2190912B211F
S1134D308C179D070CF04DCF80913A2190913B2127
S1134D408C179D070CF445CF0F3F8FEF180709F020
S1134D5040CF08E010E0209709F042CF1092FA17F4
S1134D601092F917DF91CF911F910F91FF90EF905F
S1134D70DF90CF90BF90AF909F908F9008956091F7
S1134D80C2207091C3206C177D070CF451C000E061
S1134D9010E08091E2209091E3208C179D070CF0A5
S1134DA05BC08091F2209091F3208C179D070CF446
S1134DB017C10F3F8FEF180709F463C180911221C7
S1134DC0909113218C179D070CF44EC00F3F8FEF69
S1134DD0180709F450C180913221909133218C1726
S1134DE09D076CF4E0904221F0904321EC16FD06FF
S1134DF00CF44FC00F3F8FEF180709F445C101159C
S1134E00110509F04FC02091C4203091C520C29FE4
S1134E10C001C39F900DD29F900D11240E94C955CB
S1134E207195619571097093FA176093F9179ACF88
S1134E308091D2209091D3208C179D070CF0C6C08E
S1134E400FEF1FEF8091E2209091E3208C179D07D4
S1134E500CF4A7CF02E010E080910221909103218D
S1134E608C179D070CF4AACF8091222190912321C5
S1134E708C179D070CF49AC00F3F8FEF180709F4A5
S1134E80FDC0E0904221F0904321EC16FD060CF0A9
S1134E90B6CF0115110509F4B6CF0F3F8FEF1807F0
S1134EA009F4C0C0F801E295F295F07FFE27E07F97
S1134EB0FE27E655FF4DC084D184E284F384CC19E7
S1134EC0DD09BE01DD0F880B990B0E94E6574B01EB
S1134ED05C0102951295107F1027007F1027E801CE
S1134EE0C654DF4D6A857B856E197F09072E000C39
S1134EF0880B990B0E94E6579B01AC01C501B401D4
S1134F000E94E0584B015C01888599858C199D09A4
S1134F10BC01990F880B990B0E94E6579B01AC01C9
S1134F20C501B4010E943C570E94AE576E0D7F1D0F
S1134F3077CF60913C2170913D21072E000C880BA6
S1134F40990B0E94E6576B017C01BE01DD0F880BB3
S1134F50990B0E94E6579B01AC01C701B6010E9460
S1134F60E0586B017C0180913A2190913B21BC0176
S1134F70990F880B990B0E94E6579B01AC01C7015E
S1134F80B6010E943C570E94AE577093FA17609383
S1134F90F917E8CE06E010E01CCE03E010E004CEE2
S1134FA005E010E0C1CE04E010E087CE809132210C
S1134FB0909133218C179D070CF414CF0F3F8FEF82
S1134FC0180709F01CCF07E010E019CF01E010E04A
S1134FD08091F2209091F3208C179D070CF0EECE77
S1134FE080910221909103218C179D070CF4E6CE49
S1134FF00F3F8FEF180709F037CF04E010E034CFEC
S11350002091BC203091BD20C29FC001C39F900D50
S1135010D29F900D11240E94C9557093FA17609382
S1135020F917A0CE6091442170914521072E000C00
S1135030880B990B0E94E6574B015C01BE01DD0F02
S1135040880B990B0E94E6579B01AC01C501B40182
S11350500E94E0584B015C01B701FF0C880B990BCF
S11350600E94E6579B01AC01C501B4010E943C5764
S11350700E94AE57D5CE05E010E0ADCE06E010E0BC
S113508000CF03E010E09ACE08E010E006CF2F92A4
S11350903F924F925F926F927F928F929F92AF92C4
S11350A0BF92CF92DF92EF92FF920F931F93CF9311
S11350B0DF93EAEBF0E204E110E01183008388E27D
S11350C090E0918B808B8BE3C82ED12CD1A2C0A20F
S11350D09FE4692E712C71AA60AA24E6E22EF12CB9
S11350E0F092FB20E092FA2038E7232E312C309204
S11350F00B2120920A218BE890E090931B2180934E
S11351001A212FE930E030932B2120932A2164EBDC
S113511070E070933B2160933A21A3E1B0E0B38344
S1135120A2832FE230E0338B228B28E430E033A3D8
S113513022A32BE530E033AB22AB2DE630E03093F5
S1135140FD202093FC204DE750E050930D21409327
S11351500C212FE830E030931D2120931C2120EAFC
S113516030E030932D2120932C21CEEAD0E0D0934F
S11351703D21C0933C21B583A483C7E2D0E0D58B05
S1135180C48BACE38A2E912C95A284A2A0E5B0E056
S1135190B5ABA4ABB3E64B2E512C5092FF204092FA
S11351A0FE20A7E7B0E0B0930F21A0930E210F2EAD
S11351B0FCE8CF2ED12CF02DD0921F21C0921E21BD
S11351C030932F2120932E2170933F2160933E2111
S11351D00F2EF7E1EF2EF12CF02DF782E6820F2E41
S11351E0FEE2AF2EB12CF02DB78AA68A6894EE2485
S11351F0E6F8F12CF7A2E6A20F2EF1E5EF2EF12C42
S1135200F02DF7AAE6AA0F2EF1E6CF2ED12CF02D21
S1135210D0920121C09200210F2EF0E7CF2ED12C85
S1135220F02DD0921121C09210215093212140934E
S1135230202190933121809330210F2EF8E9CF2E35
S1135240D12CF02DD0924121C092402111870087AA
S1135250D18FC08F91A680A671AE60AE509203210B
S11352604092022130921321209212210F2EFCE849
S1135270CF2ED12CF02DD0922321C0922221309315
S11352803321209332210F2EF3EBCF2ED12CF02D8E
S1135290D0924321C09242210F2EF2E1CF2ED12C85
S11352A0F02DD386C2860F2EFDE2CF2ED12CF02D09
S11352B0D38EC28E0F2EF4E4CF2ED12CF02DD3A694
S11352C0C2A60F2EF7E5CF2ED12CF02DD3AEC2AE51
S11352D00F2EF9E6CF2ED12CF02DD0920521C092BD
S11352E00421B0931521A09314210F2EF9E8CF2E99
S11352F0D12CF02DD0922521C09224210F2EF7E934
S1135300CF2ED12CF02DD0923521C09234210F2EE6
S1135310F8EACF2ED12CF02DD0924521C092442111
S113532015870487D58FC48FCBE3D0E0D5A7C4A756
S1135330C0E5CC2ED12CD5AEC4AEC4E6D0E0D0931B
S11353400721C0930621B0931721A09316219093AF
S1135350272180932621309337212093362170937F
S113536047216093462126E130E037872687B78EB0
S1135370A68E21E430E037A726A7F092F920E09228
S1135380F82020E630E030930921209308212FE60D
S113539030E0309319212093182150932921409310
S11353A02821909339218093382189E990E09093C2
S11353B0492180934821DF91CF911F910F91FF9054
S11353C0EF90DF90CF90BF90AF909F908F907F90A1
S11353D06F905F904F903F902F900C94EC018AE671
S11353E09FE00E940F5A85359A4A11F00C94472881
S11353F00C94FA01AF92BF92CF92DF92EF92FF9298
S11354000F931F93CF93DF938091FE1D882359F050
S1135410DF91CF911F910F91FF90EF90DF90CF908C
S1135420BF90AF9008950E944044DC01CB019C01E1
S1135430AD0160E070E080E090E0A0903418B0909E
S11354403518C0903618D0903718E0903818F0907E
S1135450391800913A1810913B180E944F562F3872
S1135460314041055105610571058105910581F2C0
S113547078F20E944044DC01CB018093341890936D
S11354803518A0933618B093371810923818109224
S1135490391810923A1810923B18809133188823C7
S11354A069F18091891990918A190097C1F5109238
S11354B086191092851980918719909188190097FF
S11354C009F449C02091831930918419829FA00165
S11354D0839F500D929F500D112457FD3CC02817F7
S11354E03907F4F540911E03240F311D82179307E9
S11354F08CF030938419209383198ACF8091891971
S113550090918A19909386198093851980918719AF
S113551090918819909384198093831979CF20915D
S1135520851930918619829FA001839F500D929F07
S1135530500D112457FDBBCF28173907ECF44091C7
S11355401E03240F311D821793070CF590938619BF
S113555080938519B0CF109284191092831958CF73
S1135560821793070CF054CF40911E03241B31097A
S1135570281739077CF2BDCF821793070CF09BCF15
S113558040911E03241B310928173907FCF230937C
S11355908619209385198FCF4F925F926F927F92D5
S11355A08F929F92AF92BF92CF92DF92EF92FF922F
S11355B00F931F93CF93DF930E94FA298091FE1DCE
S11355C0813009F424C3809185199091861997FD3F
S11355D051C3BC01660F771F660F771F680F791FD1
S11355E06115710509F462C22091C0203091C12077
S11355F0261737070CF0B0C3C091D020D091D1202A
S1135600C617D7070CF0C6C3C091E020D091E120A3
S1135610C617D7070CF007C4C091F020D091F12031
S1135620C617D7070CF058C4C0910021D0910121AE
S1135630C617D7070CF04CC4C0911021D09111218A
S1135640C617D7070CF05CC4C0912021D09121214A
S1135650C617D7070CF04CC4C0913021D09131212A
S1135660C617D7070CF054C4C0914021D0914121F2
S1135670C617D7070CF050C4072E000C880B990BE3
S11356800E94E6576B017C0180913E2190913F215D
S1135690BC01990F880B990B0E94E6579B01AC0142
S11356A0C701B6010E94E0586B017C01BE01DD0F09
S11356B0880B990B0E94E6579B01AC01C701B60108
S11356C00E943C570E94AE577093761960937519E7
S11356D0809183199091841997FDC7C2BC01660F0C
S11356E0771F660F771F680F791F6115710509F41D
S11356F0B9C22091BC203091BD20261737070CF089
S11357003AC3C091CC20D091CD20C617D7070CF056
S1135710D7C3C091DC20D091DD20C617D7070CF089
S113572086C3C091EC20D091ED20C617D7070CF0AA
S1135730D7C3C091FC20D091FD20C617D7070CF029
S1135740C3C3C0910C21D0910D21C617D7070CF00B
S1135750CBC3C0911C21D0911D21C617D7070CF0D3
S1135760CBC3C0912C21D0912D21C617D7070CF0A3
S1135770D7C3C0913C21D0913D21C617D7070CF067
S1135780C3C3072E000C880B990B0E94E6576B01CC
S11357907C0180913A2190913B21BC01990F880BA7
S11357A0990B0E94E6579B01AC01C701B6010E9408
S11357B0E0586B017C01BE01DD0F880B990B0E9440
S11357C0E6579B01AC01C701B6010E943C570E94F9
S11357D0AE57709374196093731980912E188111C8
S11357E00BC27093981960939719809175199091D1
S11357F0761990939A198093991980912A03882392
S113580009F4A2C08091951990919619969587955F
S113581096958795909392198093911910922A03E3
S113582010929619109295192091FE1D213009F4B9
S11358304BC20E949F258091181890911918A0912D
S11358401A18B0911B188093101890931118A093F4
S11358501218B09313186091F9177091FA17072E64
S1135860000C880B990B0E94E6576B017C010E9487
S113587040440091F3171091F4172091F5173091DB
S1135880F617601B710B820B930B0E94E45720E008
S113589030E040ED52E40E94E0589B01AC01C701A6
S11358A0B6010E94E05820E034E244E759E40E9443
S11358B03C579B01AC0160911818709119188091A4
S11358C01A1890911B180E945956609318187093D7
S11358D0191880931A1890931B180E9440446093DF
S11358E0F3177093F4178093F5179093F61760915C
S11358F018187091191880911A1890911B180E9409
S1135900AE570E94E65760939F197093A019809335
S1135910A1199093A21983E799E10E94F33480912D
S113592073199091741990938C1980938B1918168C
S113593019060CF0EBC19093A9008093A800809104
S11359400B188F5F80930B18809129038111B1C0CC
S113595080910B18823008F498C010920B18809034
S1135960141890901518A0901618B090171840901D
S113597018185090191860901A1870901B182091DC
S11359800C1830910D1840910E1850910F18C50144
S1135990B4010E9458566B017C012091101830917B
S11359A011184091121850911318C301B2010E94AA
S11359B058569B01AC01C701B6010E94595620E01C
S11359C030E040E05FE30E94E0586B017C016093AB
S11359D01C1870931D1880931E1890931F188091A3
S11359E01F03813009F424C100910718109108188D
S11359F0D0910918C0910A18C801AD2FBC2F80930B
S1135A00281890932918A0932A18B0932B18B8013A
S1135A108D2F9C2F0E9437579B01AC01C701B60103
S1135A200E94E0589B01AC016091241870912518E4
S1135A3080912618909127180E9459566093241833
S1135A40709325188093261890932718B8018D2FEA
S1135A509C2F0E944D599B01AC01C701B6010E94C5
S1135A60E0589B01AC01609120187091211880913D
S1135A702218909123180E9459566093201870930D
S1135A8021188093221890932318DF91CF911F91AE
S1135A900F91FF90EF90DF90CF90BF90AF909F90C9
S1135AA08F907F906F905F904F90089560E070E0CA
S1135AB00BCE80919319909194199695879596950C
S1135AC087959093901980938F19109229031092BF
S1135AD09419109293192091FE1D213009F4D2C01B
S1135AE00E94F7228091141890911518A09116180D
S1135AF0B091171880930C1890930D18A0930E185A
S1135B00B0930F186091F7177091F817072E000CD7
S1135B10880B990B0E94E6576B017C010E9440445C
S1135B200091EF171091F0172091F1173091F217AF
S1135B30601B710B820B930B0E94E45720E030E052
S1135B4040ED52E40E94E0589B01AC01C701B6014C
S1135B500E94E05820E034E244E759E40E943C57B4
S1135B609B01AC016091141870911518809116185E
S1135B70909117180E945956609314187093151831
S1135B8080931618909317180E9440446093EF175F
S1135B907093F0178093F1179093F2176091141893
S1135BA07091151880911618909117180E94AE578D
S1135BB00E94E6576093A3197093A4198093A519C2
S1135BC09093A61985E799E10E94CD3380917519C8
S1135BD09091761990938E1980938D191816190641
S1135BE00CF09FC0909399008093980080910B18BB
S1135BF08F5F80930B18AECE65E779E183E799E177
S1135C000E94C2316091731970917419EACD809128
S1135C1085199091861990937619809375196091DE
S1135C208319709184197093741960937319D5CD85
S1135C30A3019201C501B4010E94585620E030E04E
S1135C404EE152E40E943C578B01AB01BC014093EE
S1135C5028185093291860932A1870932B18D82F5A
S1135C60C92FD5CE60E070E0B4CD62E00E943A1F47
S1135C70BC01AFCD63E00E943A1F909376198093E4
S1135C80751926CD092E000CAA0BBB0B4091FF17EA
S1135C90509100186091011870910218840F951F9B
S1135CA0A61FB71F8093FF1790930018A0930118A5
S1135CB0B09302188091FB179091FC170196909372
S1135CC0FC178093FB170CCF092E000CAA0BBB0BFF
S1135CD040910318509104186091051870910618AA
S1135CE0840F951FA61FB71F809303189093041861
